:020000040800F2
:1000000000000220B15700080D5400080F540008EA
:100010001154000813540008155400080000000093
:10002000000000000000000000000000175400085D
:1000300019540008000000001B5400081D5400085B
:10004000015800080158000801580008015800082C
:10005000015800080158000801580008015800081C
:10006000015800080158000801580008015800080C
:1000700001580008015800080158000801580008FC
:1000800001580008015800082954000801580008C8
:1000900039540008015800080158000801580008A8
:1000A0000158000849540008015800080158000888
:1000B00001580008015800080158000801580008BC
:1000C00001580008015800080158000801580008AC
:1000D00001580008015800086154000871540008D4
:1000E0008154000801580008015800080158000810
:1000F000015800080158000801580008015800087C
:10010000015800080158000801580008015800086B
:10011000015800080158000801580008015800085B
:10012000015800080158000801580008015800084B
:1001300001580008000000000000000001580008FD
:10014000015800080158000801580008015800082B
:10015000015800080158000801580008015800081B
:10016000015800080158000801580008015800080B
:10017000015800080158000801580008000000005C
:10018000000000000158000800000000000000000E
:10019000015800080000000000000000015800089D
:1001A00000000000000000000000000001580008EE
:1001B00001580008015800080158000801580008BB
:0401C00001580008DA
:1001D00010B5054C237833B9044B13B10448AFF381
:1001E00000800123237010BDE80100200000000002
:1001F000ACCF000808B5034B1BB103490348AFF36C
:10020000008008BD00000000EC010020ACCF000819
:10021000034613F8012B002AFBD1181A0138704746
:1002200001F0FF01102A2BDB10F0070F08D010F8A7
:10023000013B013A8B422DD010F0070F42B3F6D1AB
:10024000F0B441EA012141EA014122F007047FF0C4
:1002500000070023F0E80256083C85EA010586EA1B
:10026000010685FA47F5A3FA87F586FA47F6A5FA57
:1002700087F68EB9EED1F0BC01F0FF0102F0070263
:1002800032B110F8013B013A83EA010313B1F8D10E
:100290000020704701387047002D06BF35460338EF
:1002A000073815F0010F07D1013015F4807F02BF28
:1002B000013015F4C03F0130F0BC0138704700BF79
:1002C00081F0004102E000BF83F0004330B54FEA07
:1002D00041044FEA430594EA050F08BF90EA020F74
:1002E0001FBF54EA000C55EA020C7FEA645C7FEA07
:1002F000655C00F0E2804FEA5454D4EB5555B8BF2A
:100300006D420CDD2C4480EA020281EA030382EA9A
:10031000000083EA010180EA020281EA0303362D2C
:1003200088BF30BD11F0004F4FEA01314FF4801CFF
:100330004CEA113102D0404261EB410113F0004F11
:100340004FEA03334CEA133302D0524263EB4303C8
:1003500094EA050F00F0A780A4F10104D5F1200E66
:100360000DDB02FA0EFC22FA05F2801841F10001C1
:1003700003FA0EF2801843FA05F359410EE0A5F195
:1003800020050EF1200E012A03FA0EFC28BF4CF0C6
:10039000020C43FA05F3C01851EBE37101F000457C
:1003A00007D54FF0000EDCF1000C7EEB00006EEB89
:1003B0000101B1F5801F1BD3B1F5001F0CD3490813
:1003C0005FEA30004FEA3C0C04F101044FEA44526A
:1003D00012F5800F80F09A80BCF1004F08BF5FEAF1
:1003E000500C50F1000041EB045141EA050130BDD1
:1003F0005FEA4C0C404141EB0101013C28BFB1F5E3
:10040000801FE9D291F0000F04BF01460020B1FA2D
:1004100081F308BF2033A3F10B03B3F120020CDA00
:100420000C3208DD02F1140CC2F10C0201FA0CF0DE
:1004300021FA02F10CE002F11402D8BFC2F1200C43
:1004400001FA02F120FA0CFCDCBF41EA0C019040F9
:10045000E41AA2BF01EB0451294330BD6FEA040442
:100460001F3C1CDA0C340EDC04F11404C4F120022D
:1004700020FA04F001FA02F340EA030021FA04F33F
:1004800045EA030130BDC4F10C04C4F1200220FA96
:1004900002F001FA04F340EA0300294630BD21FAD4
:1004A00004F0294630BD94F0000F83F4801306BF9A
:1004B00081F480110134013D4EE77FEA645C18BF8E
:1004C0007FEA655C29D094EA050F08BF90EA020F25
:1004D00005D054EA000C04BF1946104630BD91EA1D
:1004E000030F1EBF0021002030BD5FEA545C05D120
:1004F0004000494128BF41F0004130BD14F580045F
:100500003CBF01F5801130BD01F0004545F0FE41D2
:1005100041F470014FF0000030BD7FEA645C1ABF07
:10052000194610467FEA655C1CBF0B46024650EA3E
:10053000013406BF52EA033591EA030F41F400216A
:1005400030BD00BF90F0000F04BF0021704730B5F0
:100550004FF4806404F132044FF000054FF00001C5
:1005600050E700BF90F0000F04BF0021704730B586
:100570004FF4806404F1320410F0004548BF40425B
:100580004FF000013EE700BF42004FEAE2014FEAB0
:1005900031014FEA02701FBF12F07F4393F07F4F8B
:1005A00081F06051704732F07F4208BF704793F08E
:1005B0007F4F04BF41F40021704730B54FF46074A1
:1005C00001F0004521F000411CE700BF50EA0102A4
:1005D00008BF704730B54FF000050AE050EA01024D
:1005E00008BF704730B511F0004502D5404261EBBD
:1005F00041014FF4806404F132045FEA915C3FF4FE
:10060000D8AE4FF003025FEADC0C18BF03325FEA9A
:10061000DC0C18BF033202EBDC02C2F1200300FA4B
:1006200003FC20FA02F001FA03FE40EA0E0021FA70
:1006300002F11444BDE600BF70B54FF0FF0C4CF45E
:10064000E06C1CEA11541DBF1CEA135594EA0C0F10
:1006500095EA0C0F00F0DEF82C4481EA030621EA4B
:100660004C5123EA4C5350EA013518BF52EA033586
:1006700041F4801143F4801338D0A0FB02CE4FF038
:100680000005E1FB02E506F00042E0FB03E54FF068
:100690000006E1FB03569CF0000F18BF4EF0010E60
:1006A000A4F1FF04B6F5007F64F5407404D25FEA5C
:1006B0004E0E6D4146EB060642EAC62141EA55510F
:1006C0004FEAC52040EA5E504FEACE2EB4F1FD0C51
:1006D00088BFBCF5E06F1ED8BEF1004F08BF5FEACF
:1006E000500E50F1000041EB045170BD06F0004681
:1006F00046EA010140EA020081EA0301B4EB5C042E
:10070000C2BFD4EB0C0541EA045170BD41F4801125
:100710004FF0000E013C00F3AB8014F1360FDEBF4A
:10072000002001F0004170BDC4F10004203C35DA26
:100730000C341BDC04F11404C4F1200500FA05F3A9
:1007400020FA04F001FA05F240EA020001F000424A
:1007500021F0004110EBD37021FA04F642EB0601C0
:100760005EEA430E08BF20EAD37070BDC4F10C04EA
:10077000C4F1200500FA04F320FA05F001FA04F2AE
:1007800040EA020001F0004110EBD37041F100019A
:100790005EEA430E08BF20EAD37070BDC4F12005A5
:1007A00000FA05F24EEA020E20FA04F301FA05F20D
:1007B00043EA020321FA04F001F0004121FA04F2B5
:1007C00020EA020000EBD3705EEA430E08BF20EA85
:1007D000D37070BD94F0000F0FD101F000464000BF
:1007E00041EB010111F4801F08BF013CF7D041EA41
:1007F000060195F0000F18BF704703F00046520045
:1008000043EB030313F4801F08BF013DF7D043EA15
:100810000603704794EA0C0F0CEA135518BF95EACB
:100820000C0F0CD050EA410618BF52EA4306D1D152
:1008300081EA030101F000414FF0000070BD50EA71
:10084000410606BF1046194652EA430619D094EAFB
:100850000C0F02D150EA013613D195EA0C0F05D1E5
:1008600052EA03361CBF104619460AD181EA030139
:1008700001F0004141F0FE4141F470014FF00000F1
:1008800070BD41F0FE4141F4780170BD70B54FF08C
:10089000FF0C4CF4E06C1CEA11541DBF1CEA13550C
:1008A00094EA0C0F95EA0C0F00F0A7F8A4EB0504EE
:1008B00081EA030E52EA03354FEA013100F08880E5
:1008C0004FEA03334FF0805545EA131343EA1263AE
:1008D0004FEA022245EA111545EA10654FEA002663
:1008E0000EF000419D4208BF964244F1FD0404F51C
:1008F000407402D25B084FEA3202B61A65EB030578
:100900005B084FEA32024FF480104FF4002CB6EB34
:10091000020E75EB030E22BFB61A754640EA0C00B4
:100920005B084FEA3202B6EB020E75EB030E22BFF4
:10093000B61A754640EA5C005B084FEA3202B6EB35
:10094000020E75EB030E22BFB61A754640EA9C00F4
:100950005B084FEA3202B6EB020E75EB030E22BFC4
:10096000B61A754640EADC0055EA060E18D04FEA82
:10097000051545EA16754FEA06164FEAC30343EA22
:1009800052734FEAC2025FEA1C1CC0D111F4801FEF
:100990000BD141EA00014FF000004FF0004CB6E7E8
:1009A00011F4801F04BF01430020B4F1FD0C88BF87
:1009B000BCF5E06F3FF6AFAEB5EB030C04BFB6EB92
:1009C000020C5FEA500C50F1000041EB045170BD85
:1009D0000EF0004E4EEA113114EB5C04C2BFD4EBB2
:1009E0000C0541EA045170BD41F480114FF0000E36
:1009F000013C90E645EA060E8DE60CEA135594EAB2
:100A00000C0F08BF95EA0C0F3FF43BAF94EA0C0FB4
:100A10000AD150EA01347FF434AF95EA0C0F7FF429
:100A200025AF104619462CE795EA0C0F06D152EA7D
:100A300003353FF4FDAE1046194622E750EA410661
:100A400018BF52EA43067FF4C5AE50EA41047FF472
:100A50000DAF52EA43057FF4EBAE12E74FF0FF3CD7
:100A600006E000BF4FF0010C02E000BF4FF0010CA8
:100A70004DF804CD4FEA410C7FEA6C5C4FEA430C21
:100A800018BF7FEA6C5C1BD001B050EA410C0CBF70
:100A900052EA430C91EA030F02BF90EA020F0020D2
:100AA000704710F1000F91EA030F58BF994208BF39
:100AB00090422CBFD8176FEAE37040F001007047F6
:100AC0004FEA410C7FEA6C5C02D150EA013C07D14D
:100AD0004FEA430C7FEA6C5CD6D152EA033CD3D098
:100AE0005DF8040B704700BF8446104662468C4692
:100AF0001946634600E000BF01B5FFF7B7FF0028C5
:100B000048BF10F1000F01BD4DF808EDFFF7F4FFED
:100B10000CBF012000205DF808FB00BF4DF808ED78
:100B2000FFF7EAFF34BF012000205DF808FB00BF9B
:100B30004DF808EDFFF7E0FF94BF012000205DF8BD
:100B400008FB00BF4DF808EDFFF7CEFF94BF012072
:100B500000205DF808FB00BF4DF808EDFFF7C4FF6B
:100B600034BF012000205DF808FB00BF4FEA410CB4
:100B70007FEA6C5C02D150EA013C0AD14FEA430C97
:100B80007FEA6C5C02D152EA033C02D14FF00000D4
:100B900070474FF0010070474FEA410212F5001212
:100BA00015D211D56FF47873B3EB625212D94FEAB4
:100BB000C12343F0004343EA505311F0004F23FA9E
:100BC00002F018BF404270474FF00000704750EAF3
:100BD000013005D111F0004008BF6FF000407047B0
:100BE0004FF00000704700BF4A0011D212F500120A
:100BF00011D20DD56FF47873B3EB62520ED44FEA75
:100C0000C12343F0004343EA505323FA02F07047F4
:100C10004FF00000704750EA013002D14FF0FF3032
:100C200070474FF0000070474FEA4102B2F1E043D5
:100C300024BFB3F5001CDCF1FE5C0DD901F0004CC3
:100C40004FEAC0024CEA5070B2F1004F40EB830013
:100C500008BF20F00100704711F0804F21D113F13F
:100C60003872BCBF01F00040704741F480114FEA78
:100C70005252C2F11802C2F1200C10FA0CF320FA01
:100C800002F018BF40F001004FEAC1234FEAD3231E
:100C900003FA0CFC40EA0C0023FA02F34FEA430388
:100CA000CCE77FEA625307D150EA01331EBF4FF011
:100CB000FE4040F44000704701F0004040F0FE402C
:100CC00040F40000704700BF53B94AB9002908BF7B
:100CD00000281CBF4FF0FF314FF0FF3000F0A4B9E7
:100CE000ADF1080C6DE904CE00F03CF8DDF804E04D
:100CF000DDE9022304B0704738B500220023044622
:100D00000D46FFF70BFF28B920462946BDE83840BD
:100D100000F00AB8204605F1004100F005F8404215
:100D200061EB410138BD00BFD0B50C4B0022064637
:100D30000F46FFF781FCFFF757FF0446FFF702FC61
:100D4000074B0022FFF778FC02460B463046394637
:100D5000FFF7BAFAFFF748FF2146D0BD0000F03D8B
:100D60000000F0412DE9F047089D04468C46002B19
:100D700040F083808A42174647D9B2FA82F242B1E4
:100D8000C2F1200024FA00F09140974040EA010CA3
:100D900094404FEA1748230CBCFBF8F61FFA87FE75
:100DA00008FB16C143EA014306FB0EF1994209D93B
:100DB000FB1806F1FF3080F01981994240F216814C
:100DC000023E3B445B1AA4B2B3FBF8F008FB1033BD
:100DD00044EA034400FB0EFEA64509D93C1900F184
:100DE000FF3380F00581A64540F2028102383C4481
:100DF00040EA0640A4EB0E0400261DB1D4400023B7
:100E0000C5E900433146BDE8F08702B9FFDEB2FA1A
:100E100082F2002A50D1CB1B4FEA174E1FFA87F8F7
:100E20000126B3FBFEFC210C0EFB1C3341EA0341FF
:100E300008FB0CF38B4207D979180CF1FF3002D272
:100E40008B4200F2E9808446C91AA3B2B1FBFEF0DE
:100E50000EFB101143EA014408FB00F8A04507D936
:100E60003C1900F1FF3302D2A04500F2D9801846A8
:100E7000A4EB080440EA0C40BFE78B4209D9002DDF
:100E800000F0B1800026C5E9000130463146BDE8DA
:100E9000F087B3FA83F6002E4AD18B4202D3824206
:100EA00000F2B880841A61EB030101208C46002D0A
:100EB000A8D0C5E9004CA5E7C2F1200320FA03F64B
:100EC000974001FA02F04FEA174ED9403043030C25
:100ED000B1FBFEF61FFA87F80EFB161143EA014339
:100EE00006FB08F1994204FA02F409D9FB1806F14D
:100EF000FF3C80F08D80994240F28A80023E3B4464
:100F00005B1A81B2B3FBFEF00EFB103341EA0341E2
:100F100000FB08F38B4207D9791800F1FF3C73D22C
:100F20008B4271D902383944CB1A40EA064678E739
:100F3000C6F1200C03FA06F422FA0CF31C4320FA43
:100F40000CF701FA06F34FEA144E21FA0CF11F4395
:100F50003B0CB1FBFEF91FFA84F80EFB191143EAB2
:100F6000014109FB08FA8A4502FA06F200FA06F383
:100F700008D9611809F1FF3048D28A4546D9A9F14C
:100F800002092144A1EB0A01BFB2B1FBFEF00EFB46
:100F9000101147EA014700FB08F8B84507D9E719DF
:100FA00000F1FF312ED2B8452CD90238274440EA4F
:100FB0000940A7EB0807A0FB02894F45C6464946F2
:100FC0001AD317D05DB1B3EB0E0267EB010707FA36
:100FD0000CFCF2404CEA0202F740C5E9002700266B
:100FE0003146BDE8F0872E4628460BE70646E9E67F
:100FF0001846FDE64345E5D2B8EB020E69EB040165
:101000000138DFE70846D2E760468DE78146B9E759
:10101000664675E730464AE7ACF1020C394413E7FF
:1010200002383C4424E700BF704700BF10B50446B7
:101030000E4B18784FF47A73B3FBF0F30C4A106838
:10104000B0FBF3F001F07AF868B90F2C01D9012058
:101050000AE0002221464FF0FF3001F02DF8034B4B
:101060005C60002000E0012010BD00BF00000020F7
:101070000C00002008B50B4B1A6842F400721A608D
:101080001A6842F480621A601A6842F480721A6028
:10109000032000F0FFFF0020FFF7C8FF04F030F846
:1010A000002008BD003C0240034A1168034B1B7836
:1010B0000B441360704700BF300B0020000000207D
:1010C000014B1868704700BF300B002038B504464C
:1010D000FFF7F6FF0546B4F1FF3F02D0044B1B7843
:1010E0001C44FFF7EDFF401BA042FAD338BD00BF00
:1010F000000000204A4B5A6822F440325A605A6875
:1011000041680A435A600268536823F4807353604D
:1011100002685368016943EA012353600268536817
:1011200023F0407353600268536881680B43536037
:101130000268936823F40063936002689368C1684F
:101140000B439360826A374B9A4257D00268936888
:1011500023F07063936002689368816A0B43936025
:101160000268936823F04053936002689368C16AF1
:101170000B4393600268936823F002039360026854
:101180009368017E43EA4103936090F82030002B7E
:101190003FD00268536843F40063536002685368A9
:1011A00023F46043536001684B68426A013A43EAA2
:1011B00042334B600268D36A23F47003D362016840
:1011C000CB6AC269013A43EA0253CB620268936870
:1011D00023F4007393600268936890F8301043EA38
:1011E000412393600268936823F4806393600268EC
:1011F0009368416943EA812393607047026893686A
:1012000023F0706393600268936823F04053936007
:10121000B0E70268536823F400635360CAE700BF75
:10122000002301400100000F38B310B50446036CE1
:1012300043B1236C13F0100F0BD00120002384F86E
:101240003C3010BD03F078FF0023636484F83C3029
:10125000EFE7236C23F4885323F0020343F00203E7
:1012600023642046FFF746FF00206064236C23F0D0
:10127000030343F001032364E0E701207047704754
:101280007047704738B5044602681168536811F01A
:10129000020F2FD003F0200363B3036C13F0100F81
:1012A00003D1036C43F400730364936813F0405F4D
:1012B00019D1237EBBB9D36A13F4700F03D093689E
:1012C00013F4806F0FD1536823F020035360236C15
:1012D00023F480732364236C13F4805F03D1236CA5
:1012E00043F0010323642046FFF7C9FF23686FF032
:1012F00012021A60236819685A6802F0800211F01D
:10130000040F36D0002A34D0226C12F0100F03D113
:10131000226C42F4005222649A6812F4401F21D1D8
:101320009A6B12F4401F03D09A6812F4806F19D19F
:101330005A6812F4806F15D19A6812F0405F11D18B
:10134000227E7AB95A6822F080025A60236C23F414
:1013500080532364236C13F4807F03D1236C43F008
:1013600001032364204602F043FC23686FF00C0263
:101370001A6022681168536803F0400311F0010FEE
:1013800004D01BB1136813F0010F09D12268116852
:10139000536803F0806311F0200F00D063B938BDAB
:1013A000236C43F4803323642046FFF769FF2368EE
:1013B0006FF001021A60E9E7636C43F002036364B3
:1013C0006FF0200515602046FFF75BFF23681D6066
:1013D000E5E7000030B482B00023019390F83C3080
:1013E000012B00F0BD80012380F83C300B68092BF5
:1013F0003ED90568EA689BB203EB43031E3B072412
:1014000004FA03F322EA0303EB600568EA688C68D8
:101410000B8803EB43031E3B04FA03F31343EB6017
:101420004B68062B3AD805686A6B03EB8303053BD0
:101430001F2404FA03F322EA03036B6305686A6B53
:101440004B6803EB8303053B0C8804FA03F3134357
:101450006B630268434B9A4250D00268414B9A42F8
:1014600059D0002380F83C30184602B030BC704799
:1014700005682A699BB203EB4303072404FA03F3CC
:1014800022EA03032B6105682A698C680B8803EB49
:10149000430304FA03F313432B61C1E70C2B16D863
:1014A00005682A6B03EB8303233B1F2404FA03F331
:1014B00022EA03032B6305682A6B4B6803EB830363
:1014C000233B0C8804FA03F313432B63C1E705683D
:1014D000EA6A03EB8303413B1F2404FA03F322EA85
:1014E0000303EB620568EA6A4B6803EB8303413B45
:1014F0000C8804FA03F31343EB62AAE70B68122B80
:10150000ABD1194B5A6822F400025A605A6842F46F
:1015100080025A60A1E70B68144A934201D0112B54
:101520009FD1114B5A6822F480025A605A6842F4E3
:1015300000025A600A680D4B9A4292D10C4B1B680C
:101540000C4AA2FB03239B0C03EB83035B00019378
:1015500002E0019B013B0193019B002BF9D180E745
:10156000022082E700200140002301401200001009
:101570000C00002083DE1B4382B00023019390F80F
:101580003C30012B6CD0012380F83C3003689A6812
:1015900012F0010F13D19A6842F001029A60354BA4
:1015A0001B68354AA2FB03239B0C03EB4303019307
:1015B00002E0019B013B0193019B002BF9D10268E2
:1015C000936813F0010F40D0036C23F4405323F0D1
:1015D000010343F480530364036C13F4807F01D14F
:1015E00000234364002380F83C306FF00403136051
:1015F0000268536843F080035360204B5B6813F02C
:101600001F0F0ED102689168536803F4806311F4D0
:10161000401F27D143BB936843F4800393600020AD
:101620001CE003689A6802F44012596801F4806172
:101630001348834201D0002010E0BAB9C1B99A68BA
:1016400042F480029A60002008E0036C43F010032B
:101650000364436C43F001034364002002B070470D
:101660000220FBE70020F9E70020F7E70020F5E77C
:101670000020F3E70C00002083DE1B430023014021
:101680000020014082B00023019303686FF0040240
:101690001A600139032906D8DFE801F0100C0802AE
:1016A00003689B6C0193019802B0704703685B6C00
:1016B0000193F8E703681B6C0193F4E70368DB6BA5
:1016C0000193F0E790F83C30012B00F0FB8030B440
:1016D000012380F83C300B68092B7DD90568EA6846
:1016E0009BB203EB43031E3B072404FA03F322EAF5
:1016F0000303EB600568EA688C680B8803EB43031F
:101700001E3B04FA03F31343EB600268936B23F46C
:10171000401393630468A36B0A69013A43EA0253D6
:10172000A3630568AA6B4B680C691B1BDBB2033310
:10173000DBB203EB83031F2404FA03F322EA03035F
:10174000AB630568AA6B4B680C691B1BDBB20333E8
:10175000DBB203EB83030C8804FA03F31343AB639C
:101760008A69594B9A424DD00268936823F47023DA
:101770009360026893688C6923439360026893685E
:1017800023F44013936002689368CC692343936009
:101790004B7D002B41D00268536843F48063536053
:1017A0000B7D002B3FD00268536843F48053536095
:1017B0004B68022B57D0032B62D0012B39D0026823
:1017C000136A23F47F6323F00F0313620268136A22
:1017D000CC682343136238E005682A699BB203EBA7
:1017E0004303072404FA03F322EA03032B61056889
:1017F0002A698C680B8803EB430304FA03F3134351
:101800002B6182E70268936823F470239360026877
:10181000936823F440139360BAE70268536823F493
:1018200080635360BCE70268536823F480535360BD
:10183000BEE70268536923F47F6323F00F0353610B
:1018400002685369CC682343536102681F4B9A4274
:1018500023D002681D4B9A4228D0002380F83C30E8
:10186000184630BC70470268936923F47F6323F005
:101870000F03936102689369CC6823439361E4E7A3
:101880000268D36923F47F6323F00F03D3610268F6
:10189000D369CC682343D361D7E70B68122BD8D127
:1018A0000B4A536843F480035360D2E70B68094A3C
:1018B000934201D0112BD0D1054A536843F4000361
:1018C0005360CAE70220704701000F00002001406A
:1018D0000023014012000010002800F0A18038B55C
:1018E000044690F82030D3B12268136843F0010316
:1018F0001360FFF7E5FB054623685A6812F0010FF5
:1019000010D1FFF7DDFB401B0A28F5D9636A43F4C9
:1019100000336362052384F82030012038BD03F0D2
:1019200047FCE1E71A6822F002021A60FFF7C8FBE1
:10193000054623685A6812F0020F0DD0FFF7C0FB6E
:10194000401B0A28F5D9636A43F400336362052318
:1019500084F820300120E1E7227E012A3DD01A6878
:1019600022F080021A60637E012B3BD0226813684C
:1019700023F040031360A37E012B39D02268136843
:1019800023F020031360E37E012B37D02268136815
:1019900043F010031360237F012B35D022681368B6
:1019A00023F008031360637F012B33D02268136890
:1019B00023F004031360A368E2681343226913430E
:1019C000626913436268013A21681343CB610020C6
:1019D0006062012384F82030A0E71A6842F0800298
:1019E0001A60C0E72268136843F040031360C2E73F
:1019F0002268136843F020031360C4E72268136869
:101A000023F010031360C6E72268136843F008034D
:101A10001360C8E72268136843F004031360CAE741
:101A20000120704790F82030013BDBB2012B05D933
:101A3000436A43F4802343620120704770B4444BEF
:101A4000D3F8002242F00102C3F80022D3F80022AA
:101A500022F47C52C3F80022D3F80022486A42EAFA
:101A60000022C3F800224A6902F01F02012000FA96
:101A700002F2D3F81C02D44320EA0200C3F81C028D
:101A8000CB69B3B9324BD3F80C022040C3F80C0237
:101A9000CE688D88486945EA0645483043F830509D
:101AA0008E6808884D6940EA0640483503EBC50357
:101AB0005860CB69012B1DD08B69002B32D1244893
:101AC000D0F804322340C0F804320B698BBB204BA2
:101AD000D3F814020440C3F814420B6A012B2FD030
:101AE0001B4AD2F8003223F00103C2F80032002072
:101AF00070BC7047164BD3F80C021043C3F80C02AD
:101B00000E688D88486945EA0645483043F83050EC
:101B10008E6888894D6940EA0640483503EBC50365
:101B20005860C9E70A48D0F804321343C0F80432B9
:101B3000CBE70748D0F814321343C0F81432CCE78F
:101B40000349D1F81C321A43C1F81C22C8E700BF70
:101B50000064004070B5044690F82050EDB2012DAD
:101B600006D0436A43F4002343620125284670BD32
:101B7000022380F820300268136823F00103136009
:101B8000FFF79EFA064623685B6813F0010F0CD03E
:101B9000FFF796FA831B0A2BF5D9636A43F40033E7
:101BA0006362052384F82030E0E700256562DDE705
:101BB00070B490F820400568AD68013CE4B2012C97
:101BC00065D815F0E05F5CD0C5F30164022C05D93F
:101BD000436A43F40003436201205DE00125A54010
:101BE0001D608B68002B39D10E68CB68056843EA0D
:101BF000465604F118031B01EE5003680D6904F109
:101C0000180603EB06135D600B7D012B31D0D179F3
:101C100093791B0443EA0163517943EA012315795F
:101C200001682B4301EB0411C1F88C31D178937812
:101C30001B0443EA0163517843EA012311780268E7
:101C40000B4302EB0412C2F88831026818342401F5
:101C5000135943F00103135100201DE04D6843EA7E
:101C6000C503CD6806682B4304F118052D01735197
:101C7000C3E7036803EB0613596841F480715960A8
:101C8000C5E7436A43F400134362012004E0436A5A
:101C900043F480234362012070BC704790F82030E9
:101CA000013BDBB2012B01D9002070470368986823
:101CB00010F0806000D001209A6812F0006F00D010
:101CC00001309B6813F0805FEFD00130704730B473
:101CD00090F82040013CE4B2012C00F2918051B90F
:101CE0000468E46814F0030F10D1436A43F400134E
:101CF0004362012089E00468246914F0030F05D1D0
:101D0000436A43F40013436201207EE0056801F159
:101D10001B0424012C5904F004049460002C61D1AC
:101D2000056801F11B0424012C59640D1460056839
:101D300001F11B0424012D5905F00205D560056849
:101D400025446D6805F00F051561056825446D682B
:101D5000C5F30725956105682C446468240C54611B
:101D6000026802EB0112D2F8B8211A70026802EB85
:101D70000112D2F8B821C2F307225A70026802EBAE
:101D80000112D2F8B821C2F307429A70026802EB3E
:101D90000112D2F8B821120EDA70026802EB0112B9
:101DA000D2F8BC211A71026802EB0112D2F8BC21F0
:101DB000C2F307225A71026802EB0112D2F8BC2169
:101DC000C2F307429A71026802EB0112D2F8BC21F9
:101DD000120EDA7171B90268D36843F02003D36040
:101DE000002012E0056801F11B0424012C59E408CD
:101DF00054609CE70268136943F020031361EFE726
:101E0000436A43F480234362012030BC704790F85A
:101E10002030013BDBB2012B05D9436A43F4802318
:101E200043620120704702685369194351610020E1
:101E300070477047704770477047704770477047EA
:101E4000704770477047704770472DE9F84F054657
:101E500003685C69D3F804809F68D3F80CB0D3F8AA
:101E600010A0D3F8189014F001063BD017F001062B
:101E700016D001229A6017F0020F08D117F0040F54
:101E80000CD117F0080606D04FF4805608E0FFF793
:101E9000D0FF002604E0FFF7CFFF01E04FF400661B
:101EA00017F4807F0DD02B684FF480729A6017F47E
:101EB000007F40F0868017F4806F00F0868046F443
:101EC000005617F4803F0DD02B684FF480329A6093
:101ED00017F4003F40F0838017F4802F00F08380D8
:101EE00046F4004614F0080F07D01BF0100F04D082
:101EF00046F400762B681022DA6014F0040F02D04A
:101F00001BF0080F79D114F0020F04D02B68DB68A6
:101F100013F0030F78D114F0400F07D01AF0100F10
:101F200004D046F480662B6810221A6114F0200F4A
:101F300002D01AF0080F6BD114F0100F04D02B68E8
:101F40001B6913F0030F6AD114F4003F02D018F09C
:101F5000100F68D114F4803F02D018F0080F69D137
:101F600014F4004F7AD018F0040F74D014F4807F6A
:101F700004D019F0010F01D046F0010614F4007FDF
:101F800004D019F0020F01D046F0020614F4806F5D
:101F900004D019F0040F01D046F0040614F4006FC9
:101FA00059D019F0700956D0B9F1400F65D058D802
:101FB000B9F1200F5ED0B9F1300F42D146F02006C2
:101FC00044E02846FFF736FF7BE717F4006F02D0A6
:101FD00046F4804675E72846FFF72FFF71E728464D
:101FE000FFF729FF7EE717F4002F02D046F4803672
:101FF00078E72846FFF722FF74E72B680822DA60AB
:102000002846FFF71CFF7EE7284602F06BFA82E7BE
:102010002B6808221A612846FFF713FF8CE7284631
:10202000FFF70EFF90E72B6810225A602846FFF753
:1020300009FF8FE72B6808225A602846FFF703FF45
:102040008EE7B9F1100F01D146F008062A689369AE
:1020500023F0700393612B6804225A609EB9BDE897
:10206000F88FB9F1500F0BD0B9F1600FEED146F4F3
:102070008076EBE746F01006E8E746F04006E5E735
:1020800046F08006E2E76B6A1E436E622846FFF761
:10209000DBFEE4E7074AD36823F4E0631B041B0C70
:1020A000000200F4E060034343F0BF6343F40033F5
:1020B000D360704700ED00E030B4174BDB68C3F32A
:1020C0000223C3F10704042C28BF04241D1D062D80
:1020D00018D9033B4FF0FF3505FA04F421EA040157
:1020E000994005FA03F322EA0303194300280BDBA6
:1020F0000901C9B200F1604000F5614080F80013A9
:1021000030BC70470023E5E700F00F000901C9B2B9
:10211000024B1954F4E700BF00ED00E014ED00E0BD
:10212000002807DB00F01F02400901239340024A08
:1021300042F82030704700BF00E100E00138B0F104
:10214000807F0AD2064B5860064AF02182F823109D
:102150000020986007221A6070470120704700BF76
:1021600010E000E000ED00E008B502F0E5FA08BD7F
:1021700070B50446866DFEF7A3FF94F83530DBB2E8
:10218000022B06D080236365002384F834300120BD
:1021900070BD05462268136823F016031360226899
:1021A000536923F080035361236CE3B12268136801
:1021B00023F0080313602268136823F001031360FF
:1021C00023681B6813F0010F11D0FEF779FF431B42
:1021D000052BF5D920236365032084F835000023FF
:1021E00084F83430D4E7A36C002BDFD1E3E7E26D51
:1021F0003F239340B360012384F83530002084F8F6
:102200003400C5E790F83530DBB2022B03D08023D1
:10221000436501207047052380F835300268136854
:1022200023F00103136000207047000000230F2BF0
:1022300000F2D780F0B482B05DE086685F000324CE
:10224000BC4026EA0406CC68BC403443846046683F
:1022500026EA02064C68C4F300129A4032434260F8
:1022600057E0DC08083450F8247003F007029600A9
:102270000F22B24027EA02070A69B2403A4340F807
:1022800024205AE0062200E00022B2403A43023401
:10229000544E46F82420544A1468EA4324EA0506BA
:1022A0004F6817F4803F01D045EA04064E4C266083
:1022B000646802EA04064F6817F4003F01D045EA5B
:1022C0000406494C6660A46802EA04064F6817F4E5
:1022D000801F01D045EA0406434CA660E468224012
:1022E0004E6816F4001F01D045EA04023E4CE2603D
:1022F00001330F2B72D801229A400C6804EA0205C0
:1023000032EA0404F4D14C6804F00304013C012CCB
:1023100093D94A6802F00302032A09D0C4685E0018
:102320000322B24024EA02048A68B2402243C26017
:102330004A6802F00302022A93D004685E00032276
:10234000B24024EA02044A6802F00302B240224387
:1023500002604A6812F4403FCAD000220192234A28
:10236000546C44F480445464526C02F480420192F0
:10237000019A9C08A61C1B4A52F8267003F003021F
:1023800096000F22B24027EA0207194A90423FF412
:102390007BAF02F58062904216D002F580629042D7
:1023A00014D002F58062904212D002F58062904211
:1023B00010D002F5806290420ED002F58062904209
:1023C0003FF460AF072260E701225EE702225CE78C
:1023D00003225AE7042258E7052256E702B0F0BC70
:1023E0007047704700380140003C0140003802400F
:1023F000000002400369194201D00120704700200B
:1024000070470AB18161704709048161704743696F
:1024100001EA030221EA030141EA024181617047B6
:1024200008B5054B5B69034200D108BD024B5861FA
:1024300001F0AAFCF9E700BF003C014010B582B0F2
:1024400000230193194B1A6C42F080521A641B6CE2
:1024500003F080530193019B154B01221A60FEF794
:102460002FFE0446134B5B6813F4803F08D1FEF740
:1024700027FE001BB0F57A7FF4D9032002B010BD0F
:102480000D4B01221A60FEF71BFE0446094B5B68E8
:1024900013F4003F07D1FEF713FE001BB0F57A7F5F
:1024A000F4D90320EAE70020E8E700BF0038024043
:1024B00040000E420070004044000E42002800F030
:1024C0009B8070B50D4604464F4B1B6803F00F030D
:1024D0008B4208D2CBB24C4A1370136803F00F033F
:1024E0008B4240F08B80236813F0020F17D013F05B
:1024F000040F04D0454A936843F4E0539360236883
:1025000013F0080F04D0414A936843F4604393608A
:102510003E4A936823F0F003A1680B43936023685D
:1025200013F0010F32D06368012B21D09A1E012ACB
:1025300025D9364A126812F0020F61D033498A68F1
:1025400022F0030213438B60FEF7BAFD06462F4BC1
:102550009B6803F00C036268B3EB820F16D0FEF7A2
:10256000AFFD801B41F288339842F0D9032042E04E
:10257000264A126812F4003FE0D101203BE0234AD2
:10258000126812F0007FD9D1012034E01E4B1B6885
:1025900003F00F03AB4207D9EAB21B4B1A701B685A
:1025A00003F00F03AB422DD1236813F0040F06D0C4
:1025B000164A936823F4E053E1680B439360236861
:1025C00013F0080F07D0114A936823F46043216980
:1025D00043EAC103936000F047F80C4B9B68C3F3D8
:1025E00003130B4AD35CD8400A4B18600A4B186897
:1025F000FEF71CFD002070BD012070470120FAE7A6
:102600000120F8E70120F6E7003C024000380240D4
:10261000E4CF00080C00002004000020014B1868E3
:10262000704700BF0C00002008B5FFF7F7FF044B10
:102630009B68C3F38223034AD35CD84008BD00BF24
:1026400000380240F4CF000808B5FFF7E7FF044B5D
:102650009B68C3F34233034AD35CD84008BD00BF34
:1026600000380240F4CF00082DE9F843594B9B682D
:1026700003F00C03082B08D00C2B5BD0042B02D0EA
:102680005548BDE8F8835548FBE7524B5A6802F0BD
:102690003F025B6813F4800F2BD04E4B5B68C3F393
:1026A000881358010021C01A61F100018C0144EA2D
:1026B00090648501B5EB000864EB01094FEAC9019C
:1026C00041EA58714FEAC800C01841F100014B02BD
:1026D00043EAD0534402204619460023FEF7F4FA99
:1026E0003C4B5B68C3F3014301335B00B0FBF3F089
:1026F000C7E7384B5B68C3F3881358010021C01A41
:1027000061F100018C0144EA906485012E1A64EBAA
:102710000107F90041EA5671F000C01841F10001CB
:102720008B0243EA90538402204619460023FEF7A9
:10273000CBFAD5E7274B5A6802F03F025B6813F4E7
:10274000800F26D0234B5B68C3F388135801002108
:10275000C01A61F100018E0146EA906687013C1AB9
:1027600066EB0105E90041EA5471E000C01841F14F
:1027700000014B0243EAD05344022046194600238D
:10278000FEF7A2FA134B5B68C3F30273B0FBF3F0DE
:1027900077E7104B5B68C3F388135C010025E41AEC
:1027A00065F10005AE0146EA9466A701381B66EBA9
:1027B0000501CC0044EA5074C500E81844F100015A
:1027C0008B0243EA90538402204619460023FEF709
:1027D0007BFAD7E7003802400024F40000127A00A8
:1027E000002800F0018270B582B00446036813F03F
:1027F000010F41D0A54B9B6803F00C03042B32D092
:10280000A24B9B6803F00C03082B27D09F4B9B68BF
:1028100003F00C030C2B59D06368B3F5803F5BD0F9
:10282000B3F5A02F5ED0994B1A6822F480321A605B
:102830001A6822F480221A606368002B5CD0FEF7CD
:102840003FFC0546914B1B6813F4003F14D1FEF783
:1028500037FC401B6428F5D90320CCE18B4B5B6827
:1028600013F4800FD2D0894B1B6813F4003F03D0C0
:102870006368002B00F0BA81236813F0020F60D068
:10288000824B9B6813F00C0F4AD0804B9B6803F07F
:102890000C03082B3FD07D4B9B6803F00C030C2BE3
:1028A00068D0E368002B74D0794B01221A60FEF7E0
:1028B00007FC0546754B1B6813F0020F60D1FEF74D
:1028C000FFFB401B0228F5D9032094E16F4B5B68A6
:1028D00013F4800FA0D0C6E76C4A136843F480332A
:1028E0001360A9E7694B1A6842F480221A601A68DB
:1028F00042F480321A609FE7FEF7E2FB0546634B25
:102900001B6813F4003FB7D0FEF7DAFB401B6428C6
:10291000F5D903206FE15D4B5B6813F4800FBAD1EA
:102920005A4B1B6813F0020F03D0E368012B40F0F1
:102930005F81564A136823F0F803216943EAC10313
:102940001360236813F0080F47D06369002B32D05F
:10295000504B01221A60FEF7B3FB05464B4B5B6FF1
:1029600013F0020F39D1FEF7ABFB401B0228F5D95B
:10297000032040E1454B5B6813F4800F91D1CFE712
:10298000424A136823F0F803216943EAC103136044
:10299000D7E73F4B00221A60FEF792FB05463B4B00
:1029A0001B6813F0020FCCD0FEF78AFB401B0228F5
:1029B000F5D903201FE1374B00221A60FEF780FB98
:1029C0000546324B5B6F13F0020F06D0FEF778FB23
:1029D000401B0228F5D903200DE1236813F0040FF2
:1029E00078D02A4B1B6C13F0805F33D10023019306
:1029F000264B1A6C42F080521A641B6C03F0805311
:102A00000193019B0125244B1B6813F4807F23D085
:102A1000A368012B34D0052B40D01C4B1A6F22F039
:102A200001021A671A6F22F004021A67A368002BCA
:102A30003ED0FEF745FB0646144B1B6F13F0020F0A
:102A400047D1FEF73DFB801B41F288339842F3D912
:102A50000320D0E00025D6E70F4A136843F48073C3
:102A60001360FEF72DFB06460B4B1B6813F4807FAB
:102A7000CED1FEF725FB801B0228F5D90320BAE052
:102A8000024A136F43F001031367CFE70038024097
:102A900000004742800E4742007000405E4B1A6FB4
:102AA00042F004021A671A6F42F001021A67BDE78A
:102AB000FEF706FB0646584B1B6F13F0020F08D0BB
:102AC000FEF7FEFA801B41F288339842F3D90320C7
:102AD00091E0EDB9A369002B00F08C804E4A92681A
:102AE00002F00C02082A54D0022B17D04B4B0022C4
:102AF0001A60FEF7E5FA0446474B1B6813F0007FA7
:102B000045D0FEF7DDFA001B0228F5D9032072E05C
:102B1000414A136C23F080531364DBE73F4B0022E0
:102B20001A60FEF7CDFA05463B4B1B6813F0007F99
:102B300006D0FEF7C5FA401B0228F5D903205AE05B
:102B4000E369226A1343626A43EA8213A26A520863
:102B5000013A43EA0243E26A43EA0263226B43EA30
:102B600002732D4A53602D4B01221A60FEF7A8FA1A
:102B70000446294B1B6813F0007F06D1FEF7A0FA2C
:102B8000001B0228F5D9032035E0002033E00020A7
:102B900031E0012B31D0204B5B6803F48001E26906
:102BA00091422CD103F03F02216A8A4229D1616A05
:102BB00047F6C0721A40B2EB811F24D103F44031B2
:102BC000A26A5208013AB1EB024F1ED103F07062C3
:102BD000E16AB2EB016F1AD103F0E043226BB3EB71
:102BE000027F16D1002006E001207047012002E09C
:102BF000012000E0002002B070BD0120FBE70120B1
:102C0000F9E70120F7E70120F5E70120F3E70120CC
:102C1000F1E70120EFE700BF0038024060004742C3
:102C200030B4036A23F001030362056A42688469D1
:102C300024F073040B681C4325F002058B682B43BA
:102C4000104DA84203D005F58065A84205D123F0B8
:102C50000803CD682B4323F004030A4DA84203D098
:102C600005F58065A84205D122F440724D691543EF
:102C70008A692A43426084614A684263036230BCC5
:102C8000704700BF0000014030B4036A23F4807332
:102C90000362036A4268C46924F073040D682C431C
:102CA00023F400738D6843EA0523124DA84203D034
:102CB00005F58065A84206D123F40063CD6843EA98
:102CC000052323F480630B4DA84203D005F58065EE
:102CD000A84207D122F440524D6942EA05128D699B
:102CE00042EA05124260C4614A68C263036230BCB2
:102CF000704700BF0000014030B4036A23F48053E2
:102D00000362036A4468C26922F4E6420D6842EA3B
:102D1000052223F400538D6843EA0533094DA84288
:102D200003D005F58065A84204D124F480444D69A0
:102D300044EA85144460C2614A680264036230BC9C
:102D4000704700BF0000014030B4036A056A25F0F7
:102D500001050562846924F0F00444EA021423F0BA
:102D60000A030B438461036230BC704730B4056AC8
:102D700025F0100505628469036A24F4704444EA6E
:102D8000023423F0A00343EA01138461036230BCE0
:102D90007047836823F070030B4343F0070383609D
:102DA0007047000090F83D30DBB2012B37D1022391
:102DB00080F83D300268D36843F00103D3600368B4
:102DC000194A934220D0B3F1804F1DD0A2F57C4226
:102DD000934219D002F58062934215D002F58062C9
:102DE000934211D002F5784293420DD002F5705211
:102DF000934209D0A2F59432934205D01A6842F06A
:102E000001021A60002070479A6802F00702062A41
:102E100007D01A6842F001021A60002070470120B2
:102E200070470020704700BF000001400268D3686F
:102E300023F00103D3600368196A41F211121142B1
:102E400008D1196A40F24442114203D11A6822F0B3
:102E500001021A60012380F83D300020704770475E
:102E6000704770477047704710B5044603681A6989
:102E700012F0020F11D0DA6812F0020F0DD06FF0CD
:102E800002021A610123037703689B6913F0030FA1
:102E900070D0FFF7E6FF0023237723681A6912F04A
:102EA000040F12D0DA6812F0040F0ED06FF0040293
:102EB0001A610223237723689B6913F4407F5FD054
:102EC0002046FFF7CEFF0023237723681A6912F00C
:102ED000080F12D0DA6812F0080F0ED06FF0080257
:102EE0001A61042323772368DB6913F0030F4ED0A4
:102EF0002046FFF7B6FF0023237723681A6912F0F4
:102F0000100F12D0DA6812F0100F0ED06FF010020E
:102F10001A61082323772368DB6913F4407F3DD0CF
:102F20002046FFF79EFF0023237723681A6912F0DB
:102F3000010F03D0DA6812F0010F36D123681A6945
:102F400012F0800F03D0DA6812F0800F34D12368BA
:102F50001A6912F0400F03D0DA6812F0400F32D134
:102F600023681A6912F0200F03D0DA6812F0200FDC
:102F700030D110BDFFF774FF2046FFF773FF8AE7DB
:102F80002046FFF76DFF2046FFF76CFF9BE72046CA
:102F9000FFF766FF2046FFF765FFACE72046FFF727
:102FA0005FFF2046FFF75EFFBDE76FF001021A6189
:102FB000204601F01DFFC1E76FF080021A61204634
:102FC00000F0D7FAC3E76FF040021A612046FFF71E
:102FD0004AFFC5E76FF020021A61204600F0C8FAE8
:102FE000C7E700000368304A904212D0B0F1804F2A
:102FF0000FD0A2F57C4290420BD002F58062904245
:1030000007D002F58062904203D002F578429042E8
:1030100003D123F070034A681343234A90422AD015
:10302000B0F1804F27D0A2F57C42904223D002F528
:10303000806290421FD002F5806290421BD002F560
:103040007842904217D002F57052904213D002F5A8
:10305000806290420FD002F5806290420BD0A2F5C0
:103060009832904207D002F58062904203D002F578
:103070008062904203D123F44073CA68134323F063
:1030800080034A69134303608B68C3620B688362E1
:10309000054B984203D003F58063984201D10B6938
:1030A00003630123436170470000014040B310B542
:1030B000044690F83D30F3B1022384F83D302146B8
:1030C00051F8040BFFF78EFF012384F8463084F893
:1030D0003E3084F83F3084F8403084F8413084F842
:1030E000423084F8433084F8443084F8453084F822
:1030F0003D30002010BD80F83C3002F099F8DBE74D
:103100000120704740B310B5044690F83D30F3B14C
:10311000022384F83D30214651F8040BFFF762FF8B
:10312000012384F8463084F83E3084F83F3084F838
:10313000403084F8413084F8423084F8433084F8D9
:10314000443084F8453084F83D30002010BD80F8CC
:103150003C30FFF784FEDBE70120704730B4036AA0
:1031600023F010030362036A4468826922F4E64292
:103170000D6842EA052223F020038D6843EA051317
:10318000114DA84203D005F58065A84206D123F071
:103190008003CD6843EA051323F040030A4DA8429B
:1031A00003D005F58065A84207D124F440644D6939
:1031B00044EA85048D6944EA8504446082614A6872
:1031C0008263036230BC70470000014038B590F85C
:1031D0003C30012B66D004460D46012380F83C307C
:1031E0000C2A5AD8DFE802F0075959591B59595986
:1031F0003059595944000068FFF712FD226893695D
:1032000043F0080393612268936923F004039361F8
:103210002268936929690B43936100203EE00068AE
:10322000FFF79CFF2268936943F40063936122686F
:10323000936923F48063936122689369296943EA5F
:1032400001239361002029E00068FFF71DFD22683B
:10325000D36943F00803D3612268D36923F00403E0
:10326000D3612268D36929690B43D361002015E03B
:103270000068FFF741FD2268D36943F40063D3611E
:103280002268D36923F48063D3612268D3692969F2
:1032900043EA0123D361002000E00120002384F8E9
:1032A0003C3038BD0220FCE710B4846824F47F442D
:1032B00042EA03220A43224382605DF8044B7047CE
:1032C00090F83C30012B78D010B50446012380F8EB
:1032D0003C30022380F83D300268936823F47F433A
:1032E00023F0770393600B68602B4CD029D8402BD8
:1032F00054D00CD9502B22D1CA6849680068FFF716
:1033000023FD50212068FFF744FD002005E0202B1D
:103310000DD009D9302B0AD00120012384F83D308B
:10332000002384F83C3010BD0BB1102B05D1194699
:103330002068FFF72EFD0020EFE70120EDE70120D8
:10334000EBE7B3F5805F34D0B3F5005F0CD1CB6809
:103350004A6889680068FFF7A7FF2268936843F40A
:10336000804393600020D8E7702B24D1CB684A6853
:1033700089680068FFF798FF2268936843F0770335
:1033800093600020C9E7CA6849680068FFF7EEFC4F
:1033900060212068FFF7FDFC0020BEE7CA6849688D
:1033A0000068FFF7D1FC40212068FFF7F2FC002005
:1033B000B3E70020B1E70120AFE70220704710B467
:1033C00001F01F01012303FA01F4036A23EA040355
:1033D0000362036A02FA01F10B4303625DF8044BD6
:1033E0007047000010B504460846002942D194F801
:1033F0003E30DBB2013B18BF0123002B6ED1002809
:1034000051D1022384F83E30012201462068FFF7A3
:10341000D6FF2368334A934203D002F58062934279
:1034200003D15A6C42F400425A6423682D4A9342F5
:1034300049D0B3F1804F46D0A2F57C42934242D0AE
:1034400002F5806293423ED002F5806293423AD008
:1034500002F57842934236D002F57052934232D050
:10346000A2F5943293422ED01A6842F001021A60FB
:10347000002032E0042908D008290DD094F841300A
:10348000DBB2013B18BF0123B7E794F83F30DBB252
:10349000013B18BF0123B0E794F84030DBB2013B99
:1034A00018BF0123A9E7042805D0082807D0022364
:1034B00084F84130A8E7022384F83F30A4E70223D0
:1034C00084F84030A0E79A6802F00702062A07D085
:1034D0001A6842F001021A60002010BD0120FCE7CA
:1034E0000020FAE70000014090F83C30012B3BD06F
:1034F00030B4012380F83C30022380F83D3003686B
:103500005C689D6824F070040A6822435A6003686E
:10351000164A93421AD0B3F1804F17D0A2F57C42DD
:10352000934213D002F5806293420FD002F580627D
:1035300093420BD002F57842934207D002F57052C5
:10354000934203D0A2F59432934204D125F0800532
:103550004A6815439D60012380F83D30002380F8C0
:103560003C30184630BC70470220704700000140D4
:1035700070477047026802F10C0353E8003F23F4E0
:1035800090730C3242E800310029F3D1026802F155
:10359000140353E8003F23F00103143242E80031E2
:1035A0000029F3D1036B012B05D0202380F83E3096
:1035B000002303637047026802F10C0353E8003FE5
:1035C00023F010030C3242E800310029F3D1ECE77C
:1035D00090F83D30DBB2212B01D002207047836888
:1035E000B3F5805F17D0036A5A1C02621A78036829
:1035F0005A60C38C9BB2013B9BB2C3844BB9026837
:10360000D36823F08003D3600268D36843F040039B
:10361000D360002070470369002BE4D1036A1B8844
:103620000268C3F308035360036A02330362E0E7EE
:1036300070B504460268136923F44053C1680B4314
:10364000136183680269134342691343C2691A43D1
:103650000168CB6823F4164323F00C031343CB60BB
:103660000268536923F4407381690B435361036813
:10367000344A934206D002F58062934202D0FEF7AC
:10368000D3FF01E0FEF7E0FFE369B3F5004F2AD076
:103690000026051846EB06012D1846EB0101CB006C
:1036A00043EA5573EA001546194663689A009B0F72
:1036B000281846EB0101FDF707FB234DA5FB00325F
:1036C0005109642303FB11031B013233A5FB0323C0
:1036D0005B0903F0F00202EB011203F00F03216813
:1036E00013448B6070BD0026051846EB06012D18AB
:1036F00046EB0101CB0043EA5573EA001546194633
:1037000062683346921846EB0303281846EB010122
:10371000FDF7DAFA0C4DA5FB00325109642303FBD7
:103720001103DB003233A5FB03235B095A0002F4CB
:10373000F87202EB011203F00703216813448B6057
:10374000D0E700BF001001401F85EB5158B310B502
:10375000044690F83D300BB3242384F83D302268B2
:10376000D36823F40053D3602046FFF761FF22683B
:10377000136923F4904313612268536923F02A03E9
:1037800053612268D36843F40053D360002020645F
:10379000202384F83D3084F83E3010BD80F83C3062
:1037A00001F0C0FDD8E70120704790F83D30DBB252
:1037B000202B16D1B9B1C2B190F83C30012B16D0F4
:1037C00001628284C28400230364212280F83D20A8
:1037D00080F83C300168CA6842F08002CA6018462E
:1037E0007047022070470120704701207047022077
:1037F000704708B50168CA6822F04002CA602022FA
:1038000080F83D2001F0F6FE002008BD08B5806B71
:103810000023C385C38401F0E9FE08BD704790F81A
:103820003E30DBB2222B67D18368B3F5805F4DD089
:10383000826AB3F5805F04D0002B54D10369002B5A
:1038400051D103685B681370836A01338362C38D4F
:103850009BB2013B9BB2C385002B4FD100B583B017
:103860000268D36823F02003D3600268D36823F48E
:103870008073D3600268536923F0010353612023EE
:1038800080F83E30036B012B33D1002303630268C1
:1038900002F10C0353E8003F23F010030C3242E81E
:1038A00000310029F3D103681A6812F0100F06D016
:1038B000002201921A6801925B680193019B818D3D
:1038C000FFF7ACFF002003B05DF804FB0269002A9B
:1038D000AED1826A03685B68C3F308031380836A0E
:1038E00002338362B3E703685B6803F07F031370FE
:1038F000AAE701F055FEE5E7022070470020704777
:1039000030B583B0044602681368D068516913F07B
:103910000F0505D113F0200F02D010F0200F19D1A0
:103920002DB111F0010119D110F4907F16D1216B46
:1039300001297DD013F0800F03D010F0800F40F0EC
:10394000158113F0400F03D010F0400F40F01281AA
:1039500003B030BD2046FFF762FFF9E713F0010F17
:1039600006D010F4807F03D0226C42F00102226462
:1039700013F0040F04D019B1226C42F00202226449
:1039800013F0020F04D019B1226C42F00402226439
:1039900013F0080F07D010F0200F00D119B1226CDE
:1039A00042F008022264226C002AD1D013F0200FCA
:1039B00002D010F0200F29D123685B6903F0400387
:1039C000226C12F0080F00D163B32046FFF7D2FD3E
:1039D00023685B6913F0400F20D0226802F11403C2
:1039E00053E8003F23F04003143242E8003100293D
:1039F000F3D1A36B73B1614A1A65A06BFEF702FCA9
:103A00000028A5D0A06B036D9847A1E72046FFF7DB
:103A100006FFD1E7204601F0E9FD99E7204601F0D5
:103A2000E5FD95E7204601F0E1FD002323648FE7E3
:103A300013F0100F3FF47EAF10F0100F3FF47AAF89
:103A4000002301931368019353680193019B536909
:103A500013F0400F50D0A26B13685B689BB2002B31
:103A60003FF476AFA18D99427FF672AFE385D369BB
:103A7000B3F5807F37D0226802F10C0353E8003F92
:103A800023F480730C3242E800310029F3D122681C
:103A900002F1140353E8003F23F00103143242E81B
:103AA00000310029F3D1226802F1140353E8003FEA
:103AB00023F04003143242E800310029F3D12023DF
:103AC00084F83E3000232363226802F10C0353E89C
:103AD000003F23F010030C3242E800310029F3D1FB
:103AE000A06BFEF745FBA18DE38D9BB2C91A89B28D
:103AF0002046FFF793FE2BE7A18DE38D9BB2C91AF9
:103B000089B2E38D9BB2002B3FF422AF00293FF432
:103B10001FAF226802F10C0353E8003F23F49073B7
:103B20000C3242E800300028F3D1226802F114037D
:103B300053E8003F23F00103143242E8003000282C
:103B4000F3D1202384F83E3000232363226802F15E
:103B50000C0353E8003F23F010030C3242E800301E
:103B60000028F3D12046FFF759FEF1E62046FFF783
:103B70002FFDEDE62046FFF73CFEE9E60D38000894
:103B8000034681628285C28500201864222283F860
:103B90003E2083F83C001968CA6842F48072CA600B
:103BA00019684A6942F001024A611A68D36843F011
:103BB0002003D360704708B590F83E30DBB2202B6D
:103BC0000DD171B17AB190F83C30012B0DD00123A9
:103BD00080F83C3000230363FFF7D2FF00E00220AF
:103BE00008BD0120FCE70120FAE70220F8E7000009
:103BF00038B505460121FDF745FD174C2368034400
:103C0000236002212846FDF73DFD6368034463609D
:103C1000A3680133A360A3683F2B09D92268C2F3CC
:103C20008F12A28100222260A260226901322261E9
:103C3000094B5A6901325A615B693F2B0AD9064B1D
:103C40005A68C2F38F121A8300225A605A61DA69E5
:103C50000132DA6138BD00BF0402002008B5074B0D
:103C600000229A811A609A601A611A835A605A6116
:103C7000DA610348FDF780FC08BD00BF04020020A4
:103C8000180C00202DE9F0418AB000240594069418
:103C90000794089409940194374B1A6B42F004027C
:103CA0001A631A6B02F004020192019A02941A6BD1
:103CB00042F080021A631A6B02F080020292029AAA
:103CC00003941A6B42F001021A631A6B02F00102AC
:103CD0000392039A04941A6B42F002021A631B6B5C
:103CE00003F002030493049BDFF89880224620210E
:103CF0004046FEF786FB214E224606213046FEF75F
:103D000080FB1F4F22464FF470713846FEF779FB57
:103D100020230593012506950794089505A940469B
:103D2000FEF784FA0623059306950794089505A9DE
:103D30003046FEF77BFA4FF4704305934FF444137B
:103D40000693079405A93046FEF770FA4FF4707396
:103D5000059306950794089505A93846FEF766FA77
:103D6000224608212820FEF7A7F92820FEF7D8F9D7
:103D70000AB0BDE8F08100BF0038024000040240F4
:103D80000008024000000240B0F5804F17D00AD86A
:103D9000B0F5805F0FD0B0F5005F03D10A4B32223F
:103DA000DA7070477047B0F5004F03D1064B3222EE
:103DB0005A7070477047044B32221A707047024B9A
:103DC00032229A70704700BF2402002008B50122F9
:103DD00040210348FEF715FB024B64229A8008BD80
:103DE000000802402402002030B587B001AC074D26
:103DF0000FCD0FC42B68238001A8FCF709FA0146F8
:103E000001A801F0C3FC07B030BD00BF08D0000816
:103E100008B5214B9B7913F0010F24D00122042116
:103E20001E48FEF7EEFA1C4B9B7913F0020F20D0D0
:103E3000012202211948FEF7E4FA174B9B7913F08F
:103E4000040F1CD0012280211548FEF7DAFA124B2C
:103E50009B7913F0080F18D001224FF4007110481D
:103E6000FEF7CFFA08BD002204210C48FEF7C9FA7C
:103E7000D9E7002202210948FEF7C3FADDE7002254
:103E800080210748FEF7BDFAE1E700224FF40071F8
:103E90000348FEF7B6FAE5E72402002000040240DA
:103EA0000008024010B50E4B5960012802D00228CC
:103EB0000BD010BD0B4C002209492046FFF786F9B4
:103EC00000212046FFF78EFAF3E7064C042204494E
:103ED0002046FFF77BF904212046FFF783FAE8E745
:103EE000600C0020D00B0020C90041EAC010104334
:103EF0007047000030B587B0294BDB79042B10D018
:103F0000274B1B7A1BB9264BDB79012B16D0244B90
:103F10001B7A012B20D0224B1B7A022B2ED007B00C
:103F200030BD01AC1F4B0FCB84E80F002046FCF7DF
:103F30006FF90146204601F029FCE1E701AC1A4D7A
:103F40000FCD0FC42B68237001A8FCF761F901465F
:103F500001A801F01BFCDAE7114BDB79022BDAD167
:103F600001AC124D0FCD0FC42B68237001A8FCF7D4
:103F70004FF9014601A801F009FCCCE7084BDB79B9
:103F8000032BCCD101AC0A4B0FCB84E80F002046A9
:103F9000FCF73EF90146204601F0F8FBBFE700BF01
:103FA000240200201CD000082CD0000840D00008BB
:103FB00054D0000800B587B060E0404A13440021A7
:103FC0001974537C532B29D0562B4FD16A463C4948
:103FD0003C4802F0E9FADDED007AF0EEE76AB2EE75
:103FE000047AF4EEC76AF1EE10FA14D5364BC3ED3D
:103FF000017A17EE900AFCF7C7FA02460B463349DE
:1040000001A802F0B1FA01A8FCF702F9014601A8E3
:1040100001F0BCFB2CE0FFF7E7FE29E06A462849E7
:10402000284802F0C1FADDED007AF0EEE76A9FED74
:10403000287AF4EEC76AF1EE10FA14D5224BC3EDDC
:10404000027A17EE900AFCF79FFA02460B462149C6
:1040500001A802F089FA01A8FCF7DAF8014601A8E4
:1040600001F094FB04E0FFF7BFFE01E0FFF7BCFEA8
:10407000124B0022DA6001E0242816D001F002FB86
:10408000012817D101F006FB0C4BDB68002BF3D0A5
:104090000D2892D0094AD11808740133D3603F2B00
:1040A000ECD913460022DA60E8E7044A10740133C1
:1040B000D360E3E707B05DF804FB00BF24020020F3
:1040C00064D0000836020020C40B002068D000082D
:1040D0000000484270D0000808B501224FF48071FA
:1040E0000348FEF78EF9034B6422A3F8502008BD65
:1040F000000802402402002010B58CB0002408946F
:1041000009940A940B9420222146684601F0A4FBEE
:104110002848294B03604FF44033436084600123F7
:104120000361047680F82040C462244A8262C4603D
:10413000C36180F830404461FDF776F868BB0E2318
:1041400008930123099300230A9308A91948FDF74E
:1041500041F928BB0F23009301230193022204920B
:1041600002934FF4801307934FF480330693002398
:104170008DF815308DF81430039369460D48FDF71E
:10418000A1FA80B90E2300930223019369460948DE
:10419000FDF798FA50B90CB010BDFFF79DFFCEE7C0
:1041A000FFF79AFFD6E7FFF797FFEBE7FFF794FFDC
:1041B000F1E700BF180C0020002001400100000FB3
:1041C00000B58BB02348244B0360062343600023D3
:1041D0008360C3604FF4302202614FF48012426169
:1041E0000376437683760122C27603774377FDF721
:1041F00073FB18BB002305930693012207920093DB
:10420000019302930393049308920E230993694642
:104210001048FDF707FCA0B90E48FDF79BFC98B9C4
:1042200002210C48FDF7F3FD88B90C4B0022DA603F
:104230009A601A611A750BB05DF804FBFFF74CFF2A
:10424000D8E7FFF749FFE7E7FFF746FFE8E7FFF7A3
:1042500043FFEAE7440D002000640040700D002099
:1042600008B50A480A4B03604FF4E123436000237A
:104270008360C36003610C2242618361C361FFF705
:1042800065FA00B908BDFFF727FFFBE7FC0C00202B
:104290000044004000B587B00023029303930493C9
:1042A0000593009301931548154A0260B3224260BA
:1042B0008360F922C260036143618361FEF7F6FE09
:1042C00098B94FF48053029302A90C48FEF7F8FF07
:1042D00070B9202300930023019369460748FFF734
:1042E00003F940B907B05DF804FBFFF7F5FEE8E716
:1042F000FFF7F2FEEDE7FFF7EFFEF3E7840C002097
:104300000000014008B50A480A4B03604FF4E1235E
:10431000436000238360C36003610C2242618361B8
:10432000C361FFF713FA00B908BDFFF7D5FEFBE73D
:10433000340B00200048004000B58FB000230A93E2
:104340000B930C930D93089309930193029303939A
:1043500004930593069307932548264A0260436019
:10436000836040F6FF72C26003618361FEF79EFEC8
:1043700058BB4FF480530A930AA91D48FEF7A0FFCB
:1043800030BB1B48FEF7BEFE28BB002308930993F1
:1043900008A91748FFF7A8F800BB60230193002283
:1043A00002920392059201A91148FEF70FFFC0B9CE
:1043B00004220DEB02010E48FEF708FFA0B90C48DD
:1043C00000F082FF0FB05DF804FBFFF785FED0E739
:1043D000FFF782FED5E7FFF77FFED6E7FFF77CFE0B
:1043E000DBE7FFF779FEE3E7FFF776FEE7E700BFDD
:1043F000D00B00200004004008B50A480A4B0360B7
:1044000044F24F6343600023836040F2E732C260AE
:1044100003618361FEF74AFE00B908BDFFF75CFE49
:10442000FBE700BF780B00200044014000B595B0C9
:104430003422002107A801F00FFA0023029303930E
:104440000493059306930093244A116C41F0805124
:104450001164126C02F080520092009A0193204B7A
:104460001A6842F440421A601B6803F44043019307
:10447000019B012307934FF48033089302230D938C
:104480004FF480020E9204220F92B42210921193E4
:104490001293139307A8FEF7A3F9B0B9FDF7CEFF67
:1044A000B0B90F23029302230393002304934FF424
:1044B000A05305934FF480530693052102A8FDF7FE
:1044C000FDFF40B915B05DF804FBFFF705FEE5E719
:1044D000FFF702FEE5E7FFF7FFFDF3E700380240D4
:1044E0000070004000B583B07A4B7B4A00217B48C6
:1044F000FDF7EDFBF8B9784B9B68F3B9764B1B6879
:1045000040F2A35293421BD8B3F5B16F15D9A3F271
:1045100089531A2B11D8DFE803F06E1086101010A3
:10452000101074109110101010107A109D101010AF
:1045300010108010A900FFF7CFFD03B05DF804FB59
:1045400040F28962934250D019D940F28B62934273
:1045500000F0988040F20C729342EED15E4B1B69E2
:10456000032BEAD15B4A50785D4B197860F3461112
:10457000197091781A8861F3C8121A80DDE740F249
:104580002262934200F0878040F2236293420CD172
:10459000514B1B69012BD0D14E4B1B7803F00F03FD
:1045A000504A9371FFF734FCC7E740F2216293420F
:1045B000C3D1494B1B69022BBFD1464B1A788DF8EA
:1045C00006205B788DF80730BDF80610464B1B8837
:1045D0009942B2D0444B1980424B9B7913F0080F9B
:1045E000ABD00120FFF75EFCA7E73D4A137843F00C
:1045F00001031370A1E73A4A137843F002031370E2
:104600009BE7374A137843F00403137095E7344A65
:10461000137843F0080313708FE7314A137843F09F
:104620001003137089E72C4B1B69082B85D12F4B86
:10463000284A1168196052681A617EE7264B1B6987
:10464000082B7FF47AAF294B224A116859605268CF
:104650005A6172E7204B1B69082B7FF46EAF234B26
:104660001C4A1168996052689A6166E71A4B1B6987
:10467000082B7FF462AF1D4B164A1168D96052684F
:10468000DA615AE7144B1B69062B92D1114B1A8839
:10469000164B1A848DE7104B1B69022B7FF44DAF2C
:1046A0000C4B1A788DF806205B788DF80730BDF832
:1046B00006100D4B5B8899423FF43FAF0A4B59807F
:1046C000084B9B7913F0080F3FF437AF0220FFF738
:1046D000E9FB32E7F40C0020880D0020440D002097
:1046E000C00B00202402002008000020CC0C002079
:1046F00008B50C4B13221A6001221A610A4B9A79F1
:104700000A4B1A700A48FDF7C9FA00B908BD094BEF
:10471000064A04490648FDF74BFA0028F6D0FFF791
:10472000DBFCF3E7700D0020240200207C0C00204D
:10473000440D0020F00C002010B582B0AC4AB2F855
:1047400052309BB201339BB2A2F85230B2F85230D1
:104750009BB2B3F5FA7F60D0A54BB3F852309BB251
:10476000B3F57A7F5FD2A24B9B889BB253B1A04B2B
:104770009B889BB2012B60D09D4A93889BB2013BE2
:104780009BB293809A4BB3F850309BB26BB1984B6D
:10479000B3F850309BB2012B55D0954AB2F8503047
:1047A0009BB2013B9BB2A2F85030914B1B784BB1AE
:1047B0008F4B1B78DBB2012B4CD08D4A1378013B19
:1047C000DBB213708A4B5B784BB1894B5B78DBB201
:1047D000012B69D0864A5378013BDBB25370844B7E
:1047E0009B7853B1824B9B78DBB2012B00F0868023
:1047F0007F4A9378013BDBB293707D4BDB7853B1FA
:104800007B4BDB78DBB2012B00F0A980784AD378B0
:10481000013BDBB2D37002B010BD012220217548EC
:10482000FDF7EFFD98E7002220217248FDF7E9FD32
:104830006F4B0022A3F8522095E7002240216E48DA
:10484000FDF7DFFD98E700224FF480716A48FDF71D
:10485000D8FDA2E74FF480516848FDF7CBFD80B941
:10486000634B9B7913F0010F14D023F00103604ACE
:1048700093710022042100F1804000F50130FDF722
:10488000C0FD5B4B9A795E49684601F06DFEFFF70B
:104890002FFF92E743F00103554A9371012204214F
:1048A0005648FDF7AEFDECE74FF400415348FDF7E5
:1048B000A1FD80B94E4B9B7913F0020F14D023F069
:1048C00002034B4A93710022022100F1804000F55F
:1048D0000130FDF796FD464B9A794949684601F04B
:1048E00043FEFFF705FF75E743F00203404A93716B
:1048F000012202214148FDF784FDECE74FF480419D
:104900003E48FDF777FD80B9394B9B7913F0040FD2
:104910001BD023F00403364A93710022802100F15A
:10492000804000F50230FDF76CFD314B9A79344937
:10493000684601F019FE6846FBF76AFC01466846C6
:1049400000F024FFFFF7D4FE52E743F00403284AA7
:104950009371012280212848FDF753FDE5E74FF4CC
:1049600000512648FDF746FD00287FF44FAF204B4D
:104970009B7913F0080F26D023F008031C4A93718B
:1049800000224FF4007100F1804000F50230FDF785
:1049900038FD4FF6FF710120FFF784FA4FF6FF71E3
:1049A0000220FFF77FFA124B9A791549684601F009
:1049B000DBFD6846FBF72CFC0146684600F0E6FE8E
:1049C000FFF796FE22E743F00803094A937101229C
:1049D0004FF400710848FDF714FD0A4C21880120AE
:1049E000FFF760FA61880220FFF75CFADBE700BF9F
:1049F000240200200000024000080240000402409F
:104A000078D000080800002010B504460B4B19614F
:104A10001A600B48FDF742F900B910BD094B224658
:104A200006490748FDF7C4F810B1FFF755FBF4E756
:104A300002210548FDF7EBFCEFE700BF700D0020F9
:104A4000440D0020F00C0020000402402DE9F0414C
:104A5000064690461F461D4C0123237000256570B5
:104A6000A570E57021716571A571E571052201469A
:104A70000B20FFF739FA82B208212046FFF7C4FF66
:104A80000A20FCF723FB10232370657084F8028052
:104A9000E5702A4631460B20FFF726FA86B23246E9
:104AA00004212046FFF7B0FF0A20FCF70FFB50233C
:104AB00023706570A770E570324604212046FFF729
:104AC000A3FF0A20FCF702FBBDE8F0817C0C00206C
:104AD00070B5054610EE106ADFED117AC0EEA77AC8
:104AE00017EE900AFBF750FD0BA3D3E90023FBF769
:104AF000A3FDFCF799F80B4C266060600222294662
:104B00000B20FFF7F1F982B208212046FFF77CFF66
:104B100070BD00BFAFF30080182D4454FB21094045
:104B20002DB21D3D7C0C0020F8B52DED088B944B6B
:104B3000B3F92000FBF716FD7DA3D3E90023FBF7B3
:104B40007BFD04460D469FED7C1B45EC104B06F0AB
:104B50005FF951EC100B7AA3D3E90023FBF76CFD4E
:104B600006460F469FED781B45EC104B06F050F9BA
:104B700051EC100B76A3D3E90023FBF75DFD024651
:104B80000B4630463946FBF79FFB06460F4672A39D
:104B9000D3E9002320462946FBF74EFD02460B468B
:104BA00030463946FBF792FB6DA3D3E90023FBF7B0
:104BB0008BFB0022734BFBF769FE6BA3D3E9002349
:104BC000FBF73AFD41EC190B00226E4B20462946BB
:104BD000FBF75CFE64A3D3E90023FBF72DFD04463D
:104BE0000D46B0EE490AF0EE690A06F0E1F853EC22
:104BF000102B5FA1D1E90001FBF748FE5EA3D3E9CA
:104C00000023FBF761FBFCF70FF808EE100AB0EE8B
:104C1000C88A22462B4600205B49FBF737FE56A385
:104C2000D3E90023FBF750FB02460B4650A1D1E924
:104C30000001FBF72BFE41EC100B05F079FEB0EE06
:104C400040BAF0EE60BAF5EE008A78EE68AA1AEE85
:104C5000900AFBF799FC04460D46B0EE4B0AF0EEC5
:104C60006B0A06F005F853EC102B20462946FBF79B
:104C70000DFEFBF7D9FF0AEE100AB0EECAAA78EED5
:104C8000288A18EE900AFBF77FFC04460D46B0EE2A
:104C9000490AF0EE690A05F0EBFF53EC102B2046B1
:104CA0002946FBF7F3FDFBF7BFFF07EE100AB0EE56
:104CB000C77ACAEE080A354BD3ED017AC7EE089AD7
:104CC00067EEA99A88EE889A27EE899ACAEE888AB2
:104CD00067EEA88A9FED2E8A60EEA70AB0EE480A1A
:104CE0000120FFF7F5FE0120FCF7F0F9F0EE690A6C
:104CF000B0EE480A0220FFF7EBFE0120FCF7E6F9D0
:104D0000F0EE490AB0EE480A0320FFF7E1FE012069
:104D1000FCF7DCF9F0EE680AB0EE480A0420FFF771
:104D2000D7FE0120FCF7D2F9BDEC088BF8BD00BF1F
:104D3000772D211FF46C963F000000000000084012
:104D4000FA9001EA173614BF00000000000000408E
:104D50008DDB1E735424253FFFB27BF2B050DB3F46
:104D60006E5166834C32A23F182D4454FB210940FA
:104D70000000002085EBE13F00000060B81EC53F49
:104D8000CC0C0020008066400000F03FC40B0020E7
:104D9000000000000000000010B5134B9868FBF7FE
:104DA000F3FB0FA3D3E90023FBF770FD41EC100BDD
:104DB00005F0B8FF51EC100BFBF7EEFE00B20B4C08
:104DC000207000126070022201210D20FFF78CF884
:104DD00082B202212046FFF717FE10BDAFF300801C
:104DE000772D211FF46C963FC40B00207C0C002013
:104DF00008B5054B834200D008BDFFF7CDFFFFF794
:104E000093FEFFF7D7F8F7E7780B002010B50C4CAE
:104E1000BB2323706070002201210D20FFF764F88E
:104E200082B202212046FFF7EFFD40F6B830FCF7D2
:104E30004DF9FFF7B1FF4FF47A70FCF747F910BD59
:104E40007C0C002070B5244C9026267000256570DF
:104E50002A4601210D20FFF747F882B202212046A1
:104E6000FFF7D2FD0A20FCF731F9267065702A465B
:104E700001210B20FFF738F882B202212046FFF70C
:104E8000C3FD0A20FCF722F92A4602210B20FFF776
:104E90002BF882B202212046FFF7B6FD0A20FCF76C
:104EA00015F92A4603210B20FFF71EF882B20221D2
:104EB0002046FFF7A9FD0A20FCF708F92A4604213D
:104EC0000B20FFF711F882B202212046FFF79CFD6C
:104ED0000A20FCF7FBF870BD7C0C002000B587B001
:104EE000FCF7C8F8FFF7A2FAFEF7CCFEFFF704F9CB
:104EF000FFF766F9FFF7B4F9FFF7CCF9FFF702FA0D
:104F0000FFF71AFAFFF778FA714C00212046FEF7F6
:104F100069FA04212046FEF765FA6E4B60221A609A
:104F200000269E601E615E616B48FDF73BFFFEF749
:104F300095FE00F08BFB1821684800F027FC01ACBF
:104F4000674D0FCD0FC42B68237001A8FBF760F9E4
:104F5000014601A800F01AFC02216248FCF757FF45
:104F6000614A0023536013609360604A16841360A3
:104F700053609360D360136153619361D3616BE0BD
:104F8000FEF7B8FF6DE05A4C2023237001256570B1
:104F9000002229460E20FEF7A7FF86B232460221E4
:104FA0002046FFF731FD40F2DC50FCF78FF830234C
:104FB00023706570324602212046FFF725FD40F23E
:104FC000DC50FCF783F84B4A137865F346131370F3
:104FD000138865F3C813138003F4F073A02B03D078
:104FE000454B0422DA7137E0434BDD7134E0FFF7C3
:104FF00029FF4FF47A70FCF769F83E4A137843F0C2
:105000001F03137003F01F031F2B03D03A4B04221E
:10501000DA7121E0384B0222DA711DE00B20FFF734
:10502000F5FE0123122202211846FFF70FFD01238E
:10503000122202210846FFF709FD01231222022154
:105040000320FFF703FD0123122202210420FFF7B2
:10505000FDFC294B0322DA71274B1A7ADB799A423D
:105060008ED1254AD3791372042BF5D801A252F8B8
:1050700023F000BF874F0008EF4F00081D500008C5
:1050800089500008915000081C48FDF78BFEE3E7AB
:10509000B020FFF7BBFE0023122202210120FFF700
:1050A000D5FC0023122202210846FFF7CFFC002383
:1050B000122202210320FFF7C9FC00231222022141
:1050C0000420FFF7C3FC0D48FDF7B0FEC4E700BFA6
:1050D000D00B0020600C0020840C0020C8CF0008FA
:1050E00080D00008440D0020C40B0020CC0C002010
:1050F0007C0C0020C00B002024020020780B002034
:1051000082B0002100910B4B5A6C42F480425A64E9
:105110005A6C02F480420092009A01911A6C42F09B
:1051200080521A641B6C03F080530193019B02B000
:10513000704700BF0038024030B589B000230393A8
:105140000493059306930793026803F1804303F5E4
:1051500090339A4201D009B030BD0024019403F588
:105160008C335A6C42F480725A645A6C02F4807226
:105170000192019A02941A6B42F004021A631B6BAB
:1051800003F004030293029B302303930325049549
:10519000059403A90548FDF749F82246294612203F
:1051A000FCF78AFF1220FCF7BBFFD4E7000802409F
:1051B00030B589B0002303930493059306930793B6
:1051C0000268194B9A4201D009B030BD0024019405
:1051D00003F5EA331A6C42F000721A641A6C02F09A
:1051E00000720192019A02941A6B42F002021A6351
:1051F0001B6B03F002030293029B4FF44073039373
:10520000022504950594032306930923079303A914
:105210000648FDF70BF8224629461420FCF74CFF00
:105220001420FCF77DFFCFE700640040000402403B
:1052300000B585B00368204A934208D01F4A9342C4
:1052400019D01F4A934223D005B05DF804FB002219
:1052500001921C4B596C41F0010159645B6C03F0E5
:1052600001030193019B01211920FCF725FF19205F
:10527000FCF756FFE8E700230293124B1A6C42F04A
:1052800002021A641B6C03F002030293029BDBE729
:10529000002203920B4B596C41F4003159645B6C52
:1052A00003F400330393039B01211920FCF704FF4F
:1052B0001920FCF735FFC7E700000140000400405B
:1052C000004401400038024000B587B0002301933C
:1052D000029303930493059302680F4B9A4202D002
:1052E00007B05DF804FB002300930C4A116B41F0FA
:1052F00002011163126B02F002020092009A302246
:1053000001920222029203930493059201A9044898
:10531000FCF78CFFE4E700BF0004004000380240C7
:105320000004024010B58AB000230593069307934A
:10533000089309930368304A934204D02F4A93425A
:105340002DD00AB010BD002401942D4B1A6C42F4EC
:1053500000321A641A6C02F400320192019A02942B
:105360001A6B42F001021A631B6B03F001030293F4
:10537000029B0C23059302230693079403230893AF
:105380000723099305A91F48FCF750FF2246042173
:105390002620FCF791FE2620FCF7C2FED1E7002470
:1053A0000394174B1A6C42F480221A641A6C02F4AC
:1053B00080220392039A04941A6B42F004021A6347
:1053C0001B6B03F004030493049B4FF440630593A9
:1053D000022306930794032308930723099305A93F
:1053E0000948FCF723FF224605212720FCF764FE2D
:1053F0002720FCF795FEA4E7004400400048004049
:105400000038024000000240000802407047FEE7FA
:10541000FEE7FEE7FEE770477047704708B5FBF709
:1054200043FEFCF7A1FE08BD08B50248FBF72AFFC2
:1054300008BD00BF180C002008B50248FCF705FDA8
:1054400008BD00BF440D002008B50348FDF70CFD62
:105450000248FDF709FD08BD840C0020780B0020F0
:1054600008B50248FEF74CFA08BD00BFFC0C00204E
:1054700008B50248FEF744FA08BD00BF340B00200F
:1054800008B54FF48050FCF7CBFF4FF40050FCF709
:10549000C7FF4FF48040FCF7C3FF4FF40040FCF718
:1054A000BFFF08BD0120704708B500F0ABF9162317
:1054B00003604FF0FF3008BD08B54FF0FF31FFF734
:1054C000F3FFFEE770B50C4616460025B54207DA35
:1054D000AFF30080214601F8010B01350C46F5E7DA
:1054E000304670BD70B50C4616460025B54205DA4B
:1054F00014F8010BAFF300800135F7E7304670BDBB
:1055000008B503460B4A126842B10A4A10680344C0
:105510006A46934206D8074A136008BD054A064901
:105520001160F2E700F06EF90C2303604FF0FF30DA
:10553000F3E700BF80020020B80D00204FF0FF30DD
:1055400070474FF400534B600020704701207047B4
:10555000002070470F49D1F8883043F47003C1F838
:1055600088300D4B1A6842F001021A6000209860E2
:105570001A6822F0847222F480321A60074A5A6054
:105580001A6822F480221A60D8604FF000638B60A2
:10559000704700BF00ED00E00038024010300024EA
:1055A00008B502680F4B9A4200D008BD0E4B1A682E
:1055B00001321A601B687F2B11D80B4B5A680132DD
:1055C0005A605B687F2B02D9074B00225A60064B5A
:1055D0005968083301221944FEF7EDFAE5E7FEF7B2
:1055E000F5FBE2E7004400408802002008B5FEF722
:1055F000EDFB08BD08B50268124B9A4200D008BD09
:10560000114BD3F88820013AC3F88820D3F88C20B6
:105610000132C3F88C20D3F88C30B3F5006F03D37C
:10562000094B0022C3F88C20074BD3F88830002B9D
:10563000E5D0054BD3F88C10903301221944FEF7C6
:10564000B4F8DCE7004400408802002038B50B4C79
:1056500000256560C4F890582560C4F8945801226C
:1056600004F108010648FEF7A6FAC4F89858C4F8F1
:105670008C50C4F88850C4F89C5838BD880200206B
:10568000FC0C0020024B186800B970470120FCE7B1
:105690008802002038B51C4B1B68002B31D0EFF37B
:1056A000108572B6184BD3F890281A44147AD3F8A0
:1056B00090280132C3F89028D3F890387F2B03D973
:1056C000114B0022C3F890280F4B1B687F2B11D978
:1056D0000D4B5A6801325A605B687F2B02D90A4B26
:1056E00000225A60084B59680833012219440748C0
:1056F000FEF761FA044A1368013B136015B962B6FC
:1057000000E00024204638BD88020020FC0C002068
:1057100010B51C4BD3F88830B3F5006F2ED2EFF3E1
:10572000108472B6174BD3F898281A4482F8900068
:10573000D3F898280132C3F89828D3F89838B3F5ED
:10574000006F03D30F4B0022C3F898280D4BD3F8FA
:1057500088200132C3F88820D3F88830012B03D089
:1057600004B962B6002010BD064BD3F88C109033FC
:10577000012219440448FEF718F8F1E7FEF726FB6A
:105780000120F0E788020020FC0C002070B50646DE
:105790000D4600231C4600E00134A54206D9305DC9
:1057A00020B1FFF7B5FF03460028F5D0184670BDBD
:1057B000DFF834D0002103E00C4B5B584350043138
:1057C0000B480C4B42189A42F6D30B4A02E00023D6
:1057D00042F8043B094B9A42F9D3FFF7BBFE00F0B5
:1057E00017F8FFF77BFB704700000220C8D70008BE
:1057F00000000020E8010020E8010020B40D002096
:10580000FEE70000014B1868704700BF1000002041
:1058100070B50D4D0D4C641BA4100026A64209D195
:105820000B4D0C4C07F0C2FB641BA4100026A642D3
:1058300005D170BD55F8043B98470136EEE755F8A1
:10584000043B98470136F2E7C0D70008C0D70008EC
:10585000C0D70008C4D7000802440346934200D1D1
:10586000704703F8011BF9E72DE9FF4755EC104B92
:10587000002D0E4619462B46BBBF05F100431D46C1
:1058800000232D230B700D9BDDF830A0914623F0F3
:105890002008BCBF22461446B8F1460F05D0B8F127
:1058A000450F00D10136022100E0032103AB019333
:1058B00002AB009345EC104B5346324601F048FED4
:1058C000B8F1470F074602D119F0010F22D0B8F105
:1058D000460F07EB060910D13B78302B0AD1002286
:1058E000002320462946FBF70FF918B9C6F1010637
:1058F000CAF80060DAF800309944002200232046FC
:105900002946FBF701F908B1CDF80C903022039B32
:105910004B4507D3039B0E9ADB1B3846136004B03C
:10592000BDE8F087591C03911A70F0E7F7B50346FC
:105930000029B8BF494203F8022BB4BF2D222B2205
:10594000092942702ADD0DF10704A4460A27A6465C
:105950000A4691FBF7F607FB16153035632A04F16A
:10596000FF340EF8015C3146F1DC3031AEF1020556
:1059700004F8011C441C294661450AD30DF10902B3
:10598000A2EB0E02654588BF00221344181A03B02B
:10599000F0BD11F8012B04F8012FEDE73023303171
:1059A0008370C170031DF1E72DE9F04F2DED028BDF
:1059B0008DB00C46DDF8608016461F46054602F0A5
:1059C00023FFD0F800A05046FAF722FC00230A93E8
:1059D00023680593D8F8003094F818B0073323F003
:1059E000070303F10802C8F80020D3E90023C4E943
:1059F0001223D4E9128929F000430793CDF81880C7
:105A000008EE100A9F4BDDE906014FF0FF32FBF76D
:105A1000ADF888BBDDE906019A4B4FF0FF32FBF78A
:105A200087F848BB0022002340464946FBF776F83A
:105A300010B12D2384F84330934B9448BBF1470FAA
:105A400094BF9846804603232361059B23F00402FC
:105A500022604FF00009009733460BAA21462846E2
:105A600000F0D8F9013040F090804FF0FF300DB0D9
:105A7000BDEC028BBDE8F08F42464B46404649469E
:105A8000FBF774F840B14B46002BBCBF2D2384F8C4
:105A900043307F487F4BD1E763680BF0DF0206920B
:105AA0005A1C3FD106236360059B616843F4806202
:105AB000002303930AABCDE901B309AB49EC108B8A
:105AC000009322600DF123032846FFF7CDFE069BCD
:105AD0000999472B804608D1C81C02DB63689942AC
