:020000040800F2
:100000000000022025440008894100088B410008B7
:100010008D4100088F410008914100080000000058
:1000200000000000000000000000000093410008F4
:100030009541000800000000974100089941000820
:1000400075440008754400087544000875440008AC
:10005000754400087544000875440008754400089C
:10006000754400087544000875440008754400088C
:10007000754400087544000875440008754400087C
:100080007544000875440008A5410008754400083F
:10009000B54100087544000875440008754400081F
:1000A00075440008C54100087544000875440008FF
:1000B000754400087544000875440008754400083C
:1000C000754400087544000875440008754400082C
:1000D0007544000875440008D5410008E541000852
:1000E000F54100087544000875440008754400088F
:1000F00075440008754400087544000875440008FC
:1001000075440008754400087544000875440008EB
:1001100075440008754400087544000875440008DB
:1001200075440008754400087544000875440008CB
:10013000754400080000000000000000754400083D
:1001400075440008754400087544000875440008AB
:10015000754400087544000875440008754400089B
:10016000754400087544000875440008754400088B
:10017000754400087544000875440008000000003C
:1001800000000000754400080000000000000000AE
:1001900075440008000000000000000075440008DD
:1001A000000000000000000000000000754400088E
:1001B000754400087544000875440008754400083B
:0401C000754400087A
:1001D00010B5054C237833B9044B13B10448AFF381
:1001E00000800123237010BD740000200000000077
:1001F000384D000808B5034B1BB103490348AFF362
:10020000008008BD0000000078000020384D000884
:10021000034613F8012B002AFBD1181A0138704746
:1002200001F0FF01102A2BDB10F0070F08D010F8A7
:10023000013B013A8B422DD010F0070F42B3F6D1AB
:10024000F0B441EA012141EA014122F007047FF0C4
:1002500000070023F0E80256083C85EA010586EA1B
:10026000010685FA47F5A3FA87F586FA47F6A5FA57
:1002700087F68EB9EED1F0BC01F0FF0102F0070263
:1002800032B110F8013B013A83EA010313B1F8D10E
:100290000020704701387047002D06BF35460338EF
:1002A000073815F0010F07D1013015F4807F02BF28
:1002B000013015F4C03F0130F0BC0138704700BF79
:1002C00053B94AB9002908BF00281CBF4FF0FF31BD
:1002D0004FF0FF3000F06EB9ADF1080C6DE904CEBF
:1002E00000F006F8DDF804E0DDE9022304B0704711
:1002F0002DE9F047089D04468C46002B40F0838092
:100300008A42174647D9B2FA82F242B1C2F12000BE
:1003100024FA00F09140974040EA010C94404FEAE3
:100320001748230CBCFBF8F61FFA87FE08FB16C122
:1003300043EA014306FB0EF1994209D9FB1806F185
:10034000FF3080F01981994240F21681023E3B4411
:100350005B1AA4B2B3FBF8F008FB103344EA034481
:1003600000FB0EFEA64509D93C1900F1FF3380F0D1
:100370000581A64540F2028102383C4440EA06402D
:10038000A4EB0E0400261DB1D4400023C5E90043B0
:100390003146BDE8F08702B9FFDEB2FA82F2002AE8
:1003A00050D1CB1B4FEA174E1FFA87F80126B3FB3B
:1003B000FEFC210C0EFB1C3341EA034108FB0CF34D
:1003C0008B4207D979180CF1FF3002D28B4200F230
:1003D000E9808446C91AA3B2B1FBFEF00EFB1011EE
:1003E00043EA014408FB00F8A04507D93C1900F195
:1003F000FF3302D2A04500F2D9801846A4EB0804CE
:1004000040EA0C40BFE78B4209D9002D00F0B180D3
:100410000026C5E9000130463146BDE8F087B3FA51
:1004200083F6002E4AD18B4202D3824200F2B8807A
:10043000841A61EB030101208C46002DA8D0C5E988
:10044000004CA5E7C2F1200320FA03F6974001FA19
:1004500002F04FEA174ED9403043030CB1FBFEF6D1
:100460001FFA87F80EFB161143EA014306FB08F159
:10047000994204FA02F409D9FB1806F1FF3C80F016
:100480008D80994240F28A80023E3B445B1A81B2E1
:10049000B3FBFEF00EFB103341EA034100FB08F30F
:1004A0008B4207D9791800F1FF3C73D28B4271D986
:1004B00002383944CB1A40EA064678E7C6F1200CE8
:1004C00003FA06F422FA0CF31C4320FA0CF701FAA3
:1004D00006F34FEA144E21FA0CF11F433B0CB1FB1B
:1004E000FEF91FFA84F80EFB191143EA014109FBDA
:1004F00008FA8A4502FA06F200FA06F308D96118EA
:1005000009F1FF3048D28A4546D9A9F102092144B0
:10051000A1EB0A01BFB2B1FBFEF00EFB101147EADE
:10052000014700FB08F8B84507D9E71900F1FF318A
:100530002ED2B8452CD90238274440EA0940A7EB0F
:100540000807A0FB02894F45C64649461AD317D073
:100550005DB1B3EB0E0267EB010707FA0CFCF2404A
:100560004CEA0202F740C5E9002700263146BDE803
:10057000F0872E4628460BE70646E9E61846FDE6D4
:100580004345E5D2B8EB020E69EB04010138DFE721
:100590000846D2E760468DE78146B9E7664675E7CB
:1005A00030464AE7ACF1020C394413E702383C44C8
:1005B00024E700BF704700BF10B504460E4B187803
:1005C0004FF47A73B3FBF0F30C4A1068B0FBF3F00E
:1005D00001F07AF868B90F2C01D901200AE0002255
:1005E00021464FF0FF3001F02DF8034B5C600020F6
:1005F00000E0012010BD00BF000000200C00002022
:1006000008B50B4B1A6842F400721A601A6842F47B
:1006100080621A601A6842F480721A60032000F047
:10062000FFFF0020FFF7C8FF03F040FC002008BDDB
:10063000003C0240034A1168034B1B780B441360D3
:10064000704700BF7409002000000020014B1868AB
:10065000704700BF7409002038B50446FFF7F6FF65
:100660000546B4F1FF3F02D0044B1B781C44FFF752
:10067000EDFF401BA042FAD338BD00BF00000020B0
:100680004A4B5A6822F440325A605A6841680A4319
:100690005A600268536823F4807353600268536899
:1006A000016943EA012353600268536823F04073F1
:1006B00053600268536881680B4353600268936813
:1006C00023F40063936002689368C1680B439360EE
:1006D000826A374B9A4257D00268936823F070635E
:1006E000936002689368816A0B4393600268936821
:1006F00023F04053936002689368C16A0B43936090
:100700000268936823F00203936002689368017E95
:1007100043EA4103936090F82030002B3FD00268F9
:10072000536843F4006353600268536823F46043E2
:10073000536001684B68426A013A43EA42334B60B6
:100740000268D36A23F47003D3620168CB6AC2697A
:10075000013A43EA0253CB620268936823F40073C0
:1007600093600268936890F8301043EA41239360E5
:100770000268936823F48063936002689368416918
:1007800043EA8123936070470268936823F07063A3
:1007900093600268936823F040539360B0E7026867
:1007A000536823F400635360CAE700BF002301408D
:1007B0000100000F38B310B50446036C43B1236C3D
:1007C00013F0100F0BD00120002384F83C3010BD33
:1007D00003F088FB0023636484F83C30EFE7236C6C
:1007E00023F4885323F0020343F0020323642046DA
:1007F000FFF746FF00206064236C23F0030343F0FF
:1008000001032364E0E70120704770477047704799
:1008100038B5044602681168536811F0020F2FD0F2
:1008200003F0200363B3036C13F0100F03D1036CC8
:1008300043F400730364936813F0405F19D1237E7F
:10084000BBB9D36A13F4700F03D0936813F4806FAD
:100850000FD1536823F020035360236C23F480737B
:100860002364236C13F4805F03D1236C43F00103F2
:1008700023642046FFF7C9FF23686FF012021A6055
:10088000236819685A6802F0800211F0040F36D00C
:10089000002A34D0226C12F0100F03D1226C42F4E3
:1008A000005222649A6812F4401F21D19A6B12F40C
:1008B000401F03D09A6812F4806F19D15A6812F45D
:1008C000806F15D19A6812F0405F11D1227E7AB9FB
:1008D0005A6822F080025A60236C23F48053236408
:1008E000236C13F4807F03D1236C43F00103236452
:1008F000204602F029FC23686FF00C021A6022687F
:100900001168536803F0400311F0010F04D01BB1CC
:10091000136813F0010F09D122681168536803F0BE
:10092000806311F0200F00D063B938BD236C43F40D
:10093000803323642046FFF769FF23686FF00102CC
:100940001A60E9E7636C43F0020363646FF020050B
:1009500015602046FFF75BFF23681D60E5E7000098
:1009600030B482B00023019390F83C30012B00F0AA
:10097000BD80012380F83C300B68092B3ED9056807
:10098000EA689BB203EB43031E3B072404FA03F31C
:1009900022EA0303EB600568EA688C680B8803EBC6
:1009A00043031E3B04FA03F31343EB604B68062B2F
:1009B0003AD805686A6B03EB8303053B1F2404FAEE
:1009C00003F322EA03036B6305686A6B4B6803EB6E
:1009D0008303053B0C8804FA03F313436B6302683B
:1009E000434B9A4250D00268414B9A4259D000235F
:1009F00080F83C30184602B030BC704705682A6960
:100A00009BB203EB4303072404FA03F322EA030334
:100A10002B6105682A698C680B8803EB430304FA91
:100A200003F313432B61C1E70C2B16D805682A6B1F
:100A300003EB8303233B1F2404FA03F322EA03039B
:100A40002B6305682A6B4B6803EB8303233B0C88FD
:100A500004FA03F313432B63C1E70568EA6A03EB67
:100A60008303413B1F2404FA03F322EA0303EB62EE
:100A70000568EA6A4B6803EB8303413B0C8804FA80
:100A800003F31343EB62AAE70B68122BABD1194BAC
:100A90005A6822F400025A605A6842F480025A608E
:100AA000A1E70B68144A934201D0112B9FD1114B3F
:100AB0005A6822F480025A605A6842F400025A606E
:100AC0000A680D4B9A4292D10C4B1B680C4AA2FB50
:100AD00003239B0C03EB83035B00019302E0019B68
:100AE000013B0193019B002BF9D180E7022082E7B3
:100AF0000020014000230140120000100C000020E3
:100B000083DE1B4382B00023019390F83C30012B1D
:100B10006CD0012380F83C3003689A6812F0010F12
:100B200013D19A6842F001029A60354B1B68354A2E
:100B3000A2FB03239B0C03EB4303019302E0019B05
:100B4000013B0193019B002BF9D10268936813F0DC
:100B5000010F40D0036C23F4405323F0010343F40E
:100B600080530364036C13F4807F01D1002343643A
:100B7000002380F83C306FF0040313600268536870
:100B800043F080035360204B5B6813F01F0F0ED1BE
:100B900002689168536803F4806311F4401F27D101
:100BA00043BB936843F48003936000201CE0036818
:100BB0009A6802F44012596801F480611348834234
:100BC00001D0002010E0BAB9C1B99A6842F480029D
:100BD0009A60002008E0036C43F010030364436C48
:100BE00043F001034364002002B070470220FBE79A
:100BF0000020F9E70020F7E70020F5E70020F3E701
:100C00000C00002083DE1B43002301400020014034
:100C100082B00023019303686FF004021A60013967
:100C2000032906D8DFE801F0100C080203689B6C6A
:100C30000193019802B0704703685B6C0193F8E779
:100C400003681B6C0193F4E70368DB6B0193F0E727
:100C500090F83C30012B00F0FB8030B4012380F889
:100C60003C300B68092B7DD90568EA689BB203EB21
:100C700043031E3B072404FA03F322EA0303EB6059
:100C80000568EA688C680B8803EB43031E3B04FA93
:100C900003F31343EB600268936B23F440139363F5
:100CA0000468A36B0A69013A43EA0253A363056827
:100CB000AA6B4B680C691B1BDBB20333DBB203EB83
:100CC00083031F2404FA03F322EA0303AB630568DA
:100CD000AA6B4B680C691B1BDBB20333DBB203EB63
:100CE00083030C8804FA03F31343AB638A69594BFB
:100CF0009A424DD00268936823F47023936002688F
:100D000093688C69234393600268936823F44013CB
:100D1000936002689368CC69234393604B7D002BFA
:100D200041D00268536843F4806353600B7D002B0D
:100D30003FD00268536843F4805353604B68022BE2
:100D400057D0032B62D0012B39D00268136A23F4E9
:100D50007F6323F00F0313620268136ACC68234396
:100D6000136238E005682A699BB203EB430307244A
:100D700004FA03F322EA03032B6105682A698C68ED
:100D80000B8803EB430304FA03F313432B6182E75D
:100D90000268936823F4702393600268936823F4D5
:100DA00040139360BAE70268536823F4806353608A
:100DB000BCE70268536823F480535360BEE70268BF
:100DC000536923F47F6323F00F035361026853696F
:100DD000CC682343536102681F4B9A4223D00268B8
:100DE0001D4B9A4228D0002380F83C30184630BC76
:100DF00070470268936923F47F6323F00F039361C4
:100E000002689369CC6823439361E4E70268D3697D
:100E100023F47F6323F00F03D3610268D369CC68A6
:100E20002343D361D7E70B68122BD8D10B4A536801
:100E300043F480035360D2E70B68094A934201D020
:100E4000112BD0D1054A536843F400035360CAE71D
:100E50000220704701000F000020014000230140E4
:100E600012000010002800F0A18038B5044690F868
:100E70002030D3B12268136843F001031360FFF7F9
:100E8000E5FB054623685A6812F0010F10D1FFF701
:100E9000DDFB401B0A28F5D9636A43F40033636223
:100EA000052384F82030012038BD03F057F8E1E72E
:100EB0001A6822F002021A60FFF7C8FB0546236891
:100EC0005A6812F0020F0DD0FFF7C0FB401B0A2832
:100ED000F5D9636A43F400336362052384F8203054
:100EE0000120E1E7227E012A3DD01A6822F080022B
:100EF0001A60637E012B3BD02268136823F0400305
:100F00001360A37E012B39D02268136823F02003DD
:100F10001360E37E012B37D02268136843F010037F
:100F20001360237F012B35D02268136823F0080358
:100F30001360637F012B33D02268136823F004030E
:100F40001360A368E2681343226913436269134381
:100F50006268013A21681343CB610020606201237B
:100F600084F82030A0E71A6842F080021A60C0E7D7
:100F70002268136843F040031360C2E722681368D5
:100F800043F020031360C4E72268136823F01003C2
:100F90001360C6E72268136843F008031360C8E7CC
:100FA0002268136843F004031360CAE70120704706
:100FB00090F82030013BDBB2012B05D9436A43F4A2
:100FC000802343620120704770B4444BD3F8002261
:100FD00042F00102C3F80022D3F8002222F47C522E
:100FE000C3F80022D3F80022486A42EA0022C3F87C
:100FF00000224A6902F01F02012000FA02F2D3F82F
:101000001C02D44320EA0200C3F81C02CB69B3B926
:10101000324BD3F80C022040C3F80C02CE688D8806
:10102000486945EA0645483043F830508E680888DC
:101030004D6940EA0640483503EBC5035860CB696B
:10104000012B1DD08B69002B32D12448D0F80432FB
:101050002340C0F804320B698BBB204BD3F8140239
:101060000440C3F814420B6A012B2FD01B4AD2F85C
:10107000003223F00103C2F80032002070BC704738
:10108000164BD3F80C021043C3F80C020E688D887F
:10109000486945EA0645483043F830508E688889EB
:1010A0004D6940EA0640483503EBC5035860C9E77F
:1010B0000A48D0F804321343C0F80432CBE707489B
:1010C000D0F814321343C0F81432CCE70349D1F8F6
:1010D0001C321A43C1F81C22C8E700BF006400405C
:1010E00070B5044690F82050EDB2012D06D0436A49
:1010F00043F4002343620125284670BD022380F893
:1011000020300268136823F001031360FFF79EFA92
:10111000064623685B6813F0010F0CD0FFF796FAC0
:10112000831B0A2BF5D9636A43F4003363620523FA
:1011300084F82030E0E700256562DDE770B490F8C0
:1011400020400568AD68013CE4B2012C65D815F07B
:10115000E05F5CD0C5F30164022C05D9436A43F417
:101160000003436201205DE00125A5401D608B68FE
:10117000002B39D10E68CB68056843EA465604F166
:1011800018031B01EE5003680D6904F1180603EB08
:1011900006135D600B7D012B31D0D17993791B044F
:1011A00043EA0163517943EA0123157901682B432E
:1011B00001EB0411C1F88C31D17893781B0443EA18
:1011C0000163517843EA0123117802680B4302EB73
:1011D0000412C2F88831026818342401135943F00C
:1011E0000103135100201DE04D6843EAC503CD689B
:1011F00006682B4304F118052D017351C3E70368FA
:1012000003EB0613596841F480715960C5E7436ADE
:1012100043F400134362012004E0436A43F4802353
:101220004362012070BC704790F82030013BDBB274
:10123000012B01D9002070470368986810F0806086
:1012400000D001209A6812F0006F00D001309B6836
:1012500013F0805FEFD00130704730B490F8204039
:10126000013CE4B2012C00F2918051B90468E468B9
:1012700014F0030F10D1436A43F4001343620120BA
:1012800089E00468246914F0030F05D1436A43F42C
:101290000013436201207EE0056801F11B04240174
:1012A0002C5904F004049460002C61D1056801F10C
:1012B0001B0424012C59640D1460056801F11B0402
:1012C00024012D5905F00205D560056825446D6897
:1012D00005F00F051561056825446D68C5F3072500
:1012E000956105682C446468240C5461026802EB23
:1012F0000112D2F8B8211A70026802EB0112D2F87A
:10130000B821C2F307225A70026802EB0112D2F828
:10131000B821C2F307429A70026802EB0112D2F8B8
:10132000B821120EDA70026802EB0112D2F8BC2169
:101330001A71026802EB0112D2F8BC21C2F3072233
:101340005A71026802EB0112D2F8BC21C2F30742C3
:101350009A71026802EB0112D2F8BC21120EDA7106
:1013600071B90268D36843F02003D360002012E013
:10137000056801F11B0424012C59E40854609CE722
:101380000268136943F020031361EFE7436A43F4F3
:1013900080234362012030BC704790F82030013B2D
:1013A000DBB2012B05D9436A43F480234362012059
:1013B00070470268536919435161002070477047B4
:1013C0007047704770477047704770477047704765
:1013D0007047704770472DE9F84F054603685C6910
:1013E000D3F804809F68D3F80CB0D3F810A0D3F8DA
:1013F000189014F001063BD017F0010616D0012218
:101400009A6017F0020F08D117F0040F0CD117F0F3
:10141000080606D04FF4805608E0FFF7D0FF0026FC
:1014200004E0FFF7CFFF01E04FF4006617F4807F80
:101430000DD02B684FF480729A6017F4007F40F053
:10144000868017F4806F00F0868046F4005617F40B
:10145000803F0DD02B684FF480329A6017F4003F24
:1014600040F0838017F4802F00F0838046F400461C
:1014700014F0080F07D01BF0100F04D046F40076CC
:101480002B681022DA6014F0040F02D01BF0080F52
:1014900079D114F0020F04D02B68DB6813F0030F2E
:1014A00078D114F0400F07D01AF0100F04D046F492
:1014B00080662B6810221A6114F0200F02D01AF0F7
:1014C000080F6BD114F0100F04D02B681B6913F0B8
:1014D000030F6AD114F4003F02D018F0100F68D146
:1014E00014F4803F02D018F0080F69D114F4004FB3
:1014F0007AD018F0040F74D014F4807F04D019F05F
:10150000010F01D046F0010614F4007F04D019F059
:10151000020F01D046F0020614F4806F04D019F0D7
:10152000040F01D046F0040614F4006F59D019F0EE
:10153000700956D0B9F1400F65D058D8B9F1200FD5
:101540005ED0B9F1300F42D146F0200644E0284683
:10155000FFF736FF7BE717F4006F02D046F48046B2
:1015600075E72846FFF72FFF71E72846FFF729FFA9
:101570007EE717F4002F02D046F4803678E728463D
:10158000FFF722FF74E72B680822DA602846FFF78E
:101590001CFF7EE7284602F067F982E72B680822E5
:1015A0001A612846FFF713FF8CE72846FFF70EFF66
:1015B00090E72B6810225A602846FFF709FF8FE753
:1015C0002B6808225A602846FFF703FF8EE7B9F11F
:1015D000100F01D146F008062A68936923F07003C2
:1015E00093612B6804225A609EB9BDE8F88FB9F167
:1015F000500F0BD0B9F1600FEED146F48076EBE7D7
:1016000046F01006E8E746F04006E5E746F08006BB
:10161000E2E76B6A1E436E622846FFF7DBFEE4E7F3
:10162000074AD36823F4E0631B041B0C000200F498
:10163000E060034343F0BF6343F40033D36070477B
:1016400000ED00E030B4174BDB68C3F30223C3F1B5
:101650000704042C28BF04241D1D062D18D9033BA4
:101660004FF0FF3505FA04F421EA0401994005FA28
:1016700003F322EA0303194300280BDB0901C9B273
:1016800000F1604000F5614080F8001330BC704705
:101690000023E5E700F00F000901C9B2024B19541D
:1016A000F4E700BF00ED00E014ED00E0002807DBE8
:1016B00000F01F02400901239340024A42F8203003
:1016C000704700BF00E100E00138B0F1807F0AD22E
:1016D000064B5860064AF02182F8231000209860DB
:1016E00007221A6070470120704700BF10E000E039
:1016F00000ED00E008B502F04BF908BD70B50446F6
:10170000866DFEF7A3FF94F83530DBB2022B06D0CE
:1017100080236365002384F83430012070BD0546C2
:101720002268136823F0160313602268536923F0BC
:1017300080035361236CE3B12268136823F008032C
:1017400013602268136823F00103136023681B6889
:1017500013F0010F11D0FEF779FF431B052BF5D9CC
:1017600020236365032084F83500002384F8343097
:10177000D4E7A36C002BDFD1E3E7E26D3F23934076
:10178000B360012384F83530002084F83400C5E7C5
:1017900090F83530DBB2022B03D080234365012063
:1017A0007047052380F835300268136823F0010381
:1017B000136000207047000000230F2B00F2D78039
:1017C000F0B482B05DE086685F000324BC4026EA86
:1017D0000406CC68BC4034438460466826EA0206AE
:1017E0004C68C4F300129A403243426057E0DC0870
:1017F000083450F8247003F0070296000F22B2401C
:1018000027EA02070A69B2403A4340F824205AE026
:10181000062200E00022B2403A430234544E46F819
:101820002420544A1468EA4324EA05064F6817F452
:10183000803F01D045EA04064E4C2660646802EA07
:1018400004064F6817F4003F01D045EA0406494CEE
:101850006660A46802EA04064F6817F4801F01D08E
:1018600045EA0406434CA660E46822404E6816F43C
:10187000001F01D045EA04023E4CE26001330F2B09
:1018800072D801229A400C6804EA020532EA040484
:10189000F4D14C6804F00304013C012C93D94A684C
:1018A00002F00302032A09D0C4685E000322B2409A
:1018B00024EA02048A68B2402243C2604A6802F005
:1018C0000302022A93D004685E000322B24024EA95
:1018D00002044A6802F00302B240224302604A68EE
:1018E00012F4403FCAD000220192234A546C44F4BF
:1018F00080445464526C02F480420192019A9C0824
:10190000A61C1B4A52F8267003F0030296000F2211
:10191000B24027EA0207194A90423FF47BAF02F532
:101920008062904216D002F58062904214D002F597
:101930008062904212D002F58062904210D002F58F
:10194000806290420ED002F5806290423FF460AF18
:10195000072260E701225EE702225CE703225AE7E2
:10196000042258E7052256E702B0F0BC70477047E2
:1019700000380140003C01400038024000000240B5
:101980000369194201D001207047002070470AB155
:1019900081617047090481617047436901EA03026C
:1019A00021EA030141EA02418161704708B5054B14
:1019B0005B69034200D108BD024B586101F0ACFCE9
:1019C000F9E700BF003C014010B582B0002301934D
:1019D000194B1A6C42F080521A641B6C03F080534E
:1019E0000193019B154B01221A60FEF72FFE04465E
:1019F000134B5B6813F4803F08D1FEF727FE001BF2
:101A0000B0F57A7FF4D9032002B010BD0D4B01224E
:101A10001A60FEF71BFE0446094B5B6813F4003F97
:101A200007D1FEF713FE001BB0F57A7FF4D903202F
:101A3000EAE70020E8E700BF0038024040000E421D
:101A40000070004044000E42002800F09B8070B5FA
:101A50000D4604464F4B1B6803F00F038B4208D220
:101A6000CBB24C4A1370136803F00F038B4240F063
:101A70008B80236813F0020F17D013F0040F04D0EB
:101A8000454A936843F4E0539360236813F0080FCA
:101A900004D0414A936843F4604393603E4A93689C
:101AA00023F0F003A1680B439360236813F0010F48
:101AB00032D06368012B21D09A1E012A25D9364ADB
:101AC000126812F0020F61D033498A6822F00302D3
:101AD00013438B60FEF7BAFD06462F4B9B6803F05D
:101AE0000C036268B3EB820F16D0FEF7AFFD801BCC
:101AF00041F288339842F0D9032042E0264A126826
:101B000012F4003FE0D101203BE0234A126812F0BA
:101B1000007FD9D1012034E01E4B1B6803F00F0376
:101B2000AB4207D9EAB21B4B1A701B6803F00F03D4
:101B3000AB422DD1236813F0040F06D0164A9368E8
:101B400023F4E053E1680B439360236813F0080F1C
:101B500007D0114A936823F46043216943EAC10323
:101B6000936000F047F80C4B9B68C3F303130B4AD8
:101B7000D35CD8400A4B18600A4B1868FEF71CFD6E
:101B8000002070BD012070470120FAE70120F8E72E
:101B90000120F6E7003C024000380240644D000896
:101BA0000C00002004000020014B1868704700BFA3
:101BB0000C00002008B5FFF7F7FF044B9B68C3F348
:101BC0008223034AD35CD84008BD00BF00380240DE
:101BD000744D000808B5FFF7E7FF044B9B68C3F39B
:101BE0004233034AD35CD84008BD00BF00380240EE
:101BF000744D00082DE9F843594B9B6803F00C0322
:101C0000082B08D00C2B5BD0042B02D05548BDE824
:101C1000F8835548FBE7524B5A6802F03F025B6875
:101C200013F4800F2BD04E4B5B68C3F3881358011D
:101C30000021C01A61F100018C0144EA9064850121
:101C4000B5EB000864EB01094FEAC90141EA58719C
:101C50004FEAC800C01841F100014B0243EAD053DB
:101C60004402204619460023FEF72AFB3C4B5B68E2
:101C7000C3F3014301335B00B0FBF3F0C7E7384B1C
:101C80005B68C3F3881358010021C01A61F1000199
:101C90008C0144EA906485012E1A64EB0107F90077
:101CA00041EA5671F000C01841F100018B0243EA8D
:101CB00090538402204619460023FEF701FBD5E726
:101CC000274B5A6802F03F025B6813F4800F26D05E
:101CD000234B5B68C3F3881358010021C01A61F1DC
:101CE00000018E0146EA906687013C1A66EB010509
:101CF000E90041EA5471E000C01841F100014B02D3
:101D000043EAD0534402204619460023FEF7D8FA8E
:101D1000134B5B68C3F30273B0FBF3F077E7104B30
:101D20005B68C3F388135C010025E41A65F10005C4
:101D3000AE0146EA9466A701381B66EB0501CC00AC
:101D400044EA5074C500E81844F100018B0243EAEC
:101D500090538402204619460023FEF7B1FAD7E7D4
:101D6000003802400024F40000127A00002800F03D
:101D7000018270B582B00446036813F0010F41D0B0
:101D8000A54B9B6803F00C03042B32D0A24B9B683D
:101D900003F00C03082B27D09F4B9B6803F00C0328
:101DA0000C2B59D06368B3F5803F5BD0B3F5A02FFF
:101DB0005ED0994B1A6822F480321A601A6822F4B5
:101DC00080221A606368002B5CD0FEF73FFC05465A
:101DD000914B1B6813F4003F14D1FEF737FC401BF6
:101DE0006428F5D90320CCE18B4B5B6813F4800F9A
:101DF000D2D0894B1B6813F4003F03D06368002BDB
:101E000000F0BA81236813F0020F60D0824B9B6808
:101E100013F00C0F4AD0804B9B6803F00C03082B87
:101E20003FD07D4B9B6803F00C030C2B68D0E3681C
:101E3000002B74D0794B01221A60FEF707FC05468F
:101E4000754B1B6813F0020F60D1FEF7FFFB401BC0
:101E50000228F5D9032094E16F4B5B6813F4800FDF
:101E6000A0D0C6E76C4A136843F480331360A9E737
:101E7000694B1A6842F480221A601A6842F4803270
:101E80001A609FE7FEF7E2FB0546634B1B6813F4FD
:101E9000003FB7D0FEF7DAFB401B6428F5D90320DA
:101EA0006FE15D4B5B6813F4800FBAD15A4B1B682E
:101EB00013F0020F03D0E368012B40F05F81564A14
:101EC000136823F0F803216943EAC1031360236810
:101ED00013F0080F47D06369002B32D0504B01221A
:101EE0001A60FEF7B3FB05464B4B5B6F13F0020F16
:101EF00039D1FEF7ABFB401B0228F5D9032040E1A6
:101F0000454B5B6813F4800F91D1CFE7424A1368C9
:101F100023F0F803216943EAC1031360D7E73F4B7D
:101F200000221A60FEF792FB05463B4B1B6813F03C
:101F3000020FCCD0FEF78AFB401B0228F5D9032004
:101F40001FE1374B00221A60FEF780FB0546324B3B
:101F50005B6F13F0020F06D0FEF778FB401B0228E0
:101F6000F5D903200DE1236813F0040F78D02A4B34
:101F70001B6C13F0805F33D100230193264B1A6C46
:101F800042F080521A641B6C03F080530193019B52
:101F90000125244B1B6813F4807F23D0A368012BF9
:101FA00034D0052B40D01C4B1A6F22F001021A6767
:101FB0001A6F22F004021A67A368002B3ED0FEF7C6
:101FC00045FB0646144B1B6F13F0020F47D1FEF77B
:101FD0003DFB801B41F288339842F3D90320D0E0C7
:101FE0000025D6E70F4A136843F480731360FEF7A9
:101FF0002DFB06460B4B1B6813F4807FCED1FEF7FA
:1020000025FB801B0228F5D90320BAE0024A136F92
:1020100043F001031367CFE7003802400000474256
:10202000800E4742007000405E4B1A6F42F004027F
:102030001A671A6F42F001021A67BDE7FEF706FB46
:102040000646584B1B6F13F0020F08D0FEF7FEFA3E
:10205000801B41F288339842F3D9032091E0EDB917
:10206000A369002B00F08C804E4A926802F00C02AB
:10207000082A54D0022B17D04B4B00221A60FEF7CF
:10208000E5FA0446474B1B6813F0007F45D0FEF786
:10209000DDFA001B0228F5D9032072E0414A136CD7
:1020A00023F080531364DBE73F4B00221A60FEF7F6
:1020B000CDFA05463B4B1B6813F0007F06D0FEF7B8
:1020C000C5FA401B0228F5D903205AE0E369226AC9
:1020D0001343626A43EA8213A26A5208013A43EA4E
:1020E0000243E26A43EA0263226B43EA02732D4A27
:1020F00053602D4B01221A60FEF7A8FA0446294BC3
:102100001B6813F0007F06D1FEF7A0FA001B02281F
:10211000F5D9032035E0002033E0002031E0012B29
:1021200031D0204B5B6803F48001E26991422CD1ED
:1021300003F03F02216A8A4229D1616A47F6C072E0
:102140001A40B2EB811F24D103F44031A26A520835
:10215000013AB1EB024F1ED103F07062E16AB2EBBB
:10216000016F1AD103F0E043226BB3EB027F16D16B
:10217000002006E001207047012002E0012000E07D
:10218000002002B070BD0120FBE70120F9E701202B
:10219000F7E70120F5E70120F3E70120F1E701204F
:1021A000EFE700BF003802406000474230B4036AE6
:1021B00023F001030362056A4268846924F0730412
:1021C0000B681C4325F002058B682B43104DA84279
:1021D00003D005F58065A84205D123F00803CD683A
:1021E0002B4323F004030A4DA84203D005F5806574
:1021F000A84205D122F440724D6915438A692A43E9
:10220000426084614A684263036230BC704700BF29
:102210000000014030B4036A23F480730362036A50
:102220004268C46924F073040D682C4323F40073DE
:102230008D6843EA0523124DA84203D005F5806559
:10224000A84206D123F40063CD6843EA052323F4B2
:1022500080630B4DA84203D005F58065A84207D1E5
:1022600022F440524D6942EA05128D6942EA051294
:102270004260C4614A68C263036230BC704700BFF9
:102280000000014030B4036A23F480530362036A00
:102290004468C26922F4E6420D6842EA052223F44A
:1022A00000538D6843EA0533094DA84203D005F574
:1022B0008065A84204D124F480444D6944EA851421
:1022C0004460C2614A680264036230BC704700BF68
:1022D0000000014030B4036A056A25F0010505627B
:1022E000846924F0F00444EA021423F00A030B4347
:1022F0008461036230BC704730B4056A25F0100574
:1023000005628469036A24F4704444EA023423F0C9
:10231000A00343EA01138461036230BC7047836801
:1023200023F070030B4343F0070383607047000002
:1023300090F83D30DBB2012B37D1022380F83D30DD
:102340000268D36843F00103D3600368194A9342DB
:1023500020D0B3F1804F1DD0A2F57C42934219D01A
:1023600002F58062934215D002F58062934211D04B
:1023700002F5784293420DD002F57052934209D093
:10238000A2F59432934205D01A6842F001021A6015
:10239000002070479A6802F00702062A07D01A68E0
:1023A00042F001021A6000207047012070470020AF
:1023B000704700BF0000014070477047704770478A
:1023C000704710B5044603681A6912F0020F11D065
:1023D000DA6812F0020F0DD06FF002021A610123C9
:1023E000037703689B6913F0030F70D0FFF7E6FFD4
:1023F0000023237723681A6912F0040F12D0DA68D9
:1024000012F0040F0ED06FF004021A61022323773A
:1024100023689B6913F4407F5FD02046FFF7CEFF0F
:102420000023237723681A6912F0080F12D0DA68A4
:1024300012F0080F0ED06FF008021A610423237700
:102440002368DB6913F0030F4ED02046FFF7B6FF79
:102450000023237723681A6912F0100F12D0DA686C
:1024600012F0100F0ED06FF010021A6108232377BC
:102470002368DB6913F4407F3DD02046FFF79EFFC1
:102480000023237723681A6912F0010F03D0DA685A
:1024900012F0010F36D123681A6912F0800F03D0B1
:1024A000DA6812F0800F34D123681A6912F0400FF5
:1024B00003D0DA6812F0400F32D123681A6912F0A3
:1024C000200F03D0DA6812F0200F30D110BDFFF7D3
:1024D00074FF2046FFF773FF8AE72046FFF76DFF82
:1024E0002046FFF76CFF9BE72046FFF766FF20467C
:1024F000FFF765FFACE72046FFF75FFF2046FFF7D9
:102500005EFFBDE76FF001021A61204600F0E8FEB1
:10251000C1E76FF080021A61204600F0D6FAC3E7E7
:102520006FF040021A612046FFF74AFFC5E76FF0DF
:1025300020021A61204600F0C7FAC7E70368304A54
:10254000904212D0B0F1804F0FD0A2F57C42904261
:102550000BD002F58062904207D002F58062904273
:1025600003D002F57842904203D123F070034A6809
:102570001343234A90422AD0B0F1804F27D0A2F5CE
:102580007C42904223D002F5806290421FD002F537
:10259000806290421BD002F57842904217D002F53B
:1025A0007052904213D002F5806290420FD002F533
:1025B000806290420BD0A2F59832904207D002F58B
:1025C0008062904203D002F58062904203D123F4EE
:1025D0004073CA68134323F080034A6913430360BE
:1025E0008B68C3620B688362054B984203D003F586
:1025F0008063984201D10B690363012343617047F3
:102600000000014040B310B5044690F83D30F3B1EE
:10261000022384F83D30214651F8040BFFF78EFF6A
:10262000012384F8463084F83E3084F83F3084F843
:10263000403084F8413084F8423084F8433084F8E4
:10264000443084F8453084F83D30002010BD80F8D7
:102650003C3001F0C3FCDBE70120704740B310B50C
:10266000044690F83D30F3B1022384F83D30214612
:1026700051F8040BFFF762FF012384F8463084F819
:102680003E3084F83F3084F8403084F8413084F89C
:10269000423084F8433084F8443084F8453084F87C
:1026A0003D30002010BD80F83C30FFF785FEDBE7B1
:1026B0000120704730B4036A23F010030362036AF9
:1026C0004468826922F4E6420D6842EA052223F05A
:1026D00020038D6843EA0513114DA84203D005F588
:1026E0008065A84206D123F08003CD6843EA051334
:1026F00023F040030A4DA84203D005F58065A842A7
:1027000007D124F440644D6944EA85048D6944EAA4
:102710008504446082614A688263036230BC70470A
:102720000000014038B590F83C30012B66D00446DB
:102730000D46012380F83C300C2A5AD8DFE802F01D
:10274000075959591B59595930595959440000686A
:10275000FFF72CFD2268936943F008039361226818
:10276000936923F0040393612268936929690B43F9
:10277000936100203EE00068FFF79CFF22689369A8
:1027800043F4006393612268936923F48063936147
:1027900022689369296943EA01239361002029E0B3
:1027A0000068FFF737FD2268D36943F00803D3615F
:1027B0002268D36923F00403D3612268D3692969AD
:1027C0000B43D361002015E00068FFF75BFD226832
:1027D000D36943F40063D3612268D36923F480632F
:1027E000D3612268D369296943EA0123D3610020B8
:1027F00000E00120002384F83C3038BD0220FCE7D3
:1028000010B4846824F47F4442EA03220A4322433A
:1028100082605DF8044B704790F83C30012B78D013
:1028200010B50446012380F83C30022380F83D3087
:102830000268936823F47F4323F0770393600B6867
:10284000602B4CD029D8402B54D00CD9502B22D1FE
:10285000CA6849680068FFF73DFD50212068FFF70E
:102860005EFD002005E0202B0DD009D9302B0AD0C9
:102870000120012384F83D30002384F83C3010BD52
:102880000BB1102B05D119462068FFF748FD002039
:10289000EFE70120EDE70120EBE7B3F5805F34D0EF
:1028A000B3F5005F0CD1CB684A6889680068FFF710
:1028B000A7FF2268936843F4804393600020D8E721
:1028C000702B24D1CB684A6889680068FFF798FFAD
:1028D0002268936843F0770393600020C9E7CA68D1
:1028E00049680068FFF708FD60212068FFF717FDC1
:1028F0000020BEE7CA6849680068FFF7EBFC40218A
:102900002068FFF70CFD0020B3E70020B1E70120AD
:10291000AFE70220704710B401F01F01012303FA52
:1029200001F4036A23EA04030362036A02FA01F171
:102930000B4303625DF8044B7047000010B504467A
:102940000846002942D194F83E30DBB2013B18BF63
:102950000123002B6ED1002851D1022384F83E3090
:10296000012201462068FFF7D6FF2368334A9342CD
:1029700003D002F58062934203D15A6C42F40042C4
:102980005A6423682D4A934249D0B3F1804F46D010
:10299000A2F57C42934242D002F5806293423ED03F
:1029A00002F5806293423AD002F57842934236D0E3
:1029B00002F57052934232D0A2F5943293422ED057
:1029C0001A6842F001021A60002032E0042908D09F
:1029D00008290DD094F84130DBB2013B18BF012328
:1029E000B7E794F83F30DBB2013B18BF0123B0E7F3
:1029F00094F84030DBB2013B18BF0123A9E704285B
:102A000005D0082807D0022384F84130A8E7022324
:102A100084F83F30A4E7022384F84030A0E79A68A6
:102A200002F00702062A07D01A6842F001021A6073
:102A3000002010BD0120FCE70020FAE70000014063
:102A400090F83C30012B3BD030B4012380F83C306F
:102A5000022380F83D3003685C689D6824F07004B0
:102A60000A6822435A600368164A93421AD0B3F1A7
:102A7000804F17D0A2F57C42934213D002F58062BA
:102A800093420FD002F5806293420BD002F5784258
:102A9000934207D002F57052934203D0A2F59432CC
:102AA000934204D125F080054A6815439D600123B7
:102AB00080F83D30002380F83C30184630BC704729
:102AC000022070470000014070477047026802F121
:102AD0000C0353E8003F23F490730C3242E80031BA
:102AE0000029F3D1026802F1140353E8003F23F0F8
:102AF0000103143242E800310029F3D1036B012BAA
:102B000005D0202380F83E3000230363704702681D
:102B100002F10C0353E8003F23F010030C3242E8AB
:102B200000310029F3D1ECE790F83D30DBB2212BE6
:102B300001D0022070478368B3F5805F17D0036A25
:102B40005A1C02621A7803685A60C38C9BB2013B1C
:102B50009BB2C3844BB90268D36823F08003D3606F
:102B60000268D36843F04003D360002070470369D4
:102B7000002BE4D1036A1B880268C3F30803536087
:102B8000036A02330362E0E770B504460268136922
:102B900023F44053C1680B431361836802691343F4
:102BA00042691343C2691A430168CB6823F4164390
:102BB00023F00C031343CB600268536923F4407382
:102BC00081690B4353610368344A934206D002F58E
:102BD0008062934202D0FEF7EDFF01E0FEF7FAFFBC
:102BE000E369B3F5004F2AD00026051846EB06012D
:102BF0002D1846EB0101CB0043EA5573EA00154658
:102C0000194663689A009B0F281846EB0101FDF7EF
:102C100057FB234DA5FB00325109642303FB11032D
:102C20001B013233A5FB03235B0903F0F00202EB27
:102C3000011203F00F03216813448B6070BD00265E
:102C4000051846EB06012D1846EB0101CB0043EABF
:102C50005573EA001546194662683346921846EBEA
:102C60000303281846EB0101FDF72AFB0C4DA5FBD9
:102C700000325109642303FB1103DB003233A5FB4F
:102C800003235B095A0002F4F87202EB011203F00D
:102C90000703216813448B60D0E700BF0010014098
:102CA0001F85EB5158B310B5044690F83D300BB377
:102CB000242384F83D302268D36823F40053D36082
:102CC0002046FFF761FF2268136923F490431361E4
:102CD0002268536923F02A0353612268D36843F4BE
:102CE0000053D36000202064202384F83D3084F812
:102CF0003E3010BD80F83C3001F0D2F9D8E7012019
:102D0000704790F83D30DBB2202B16D1B9B1C2B17B
:102D100090F83C30012B16D001628284C2840023DB
:102D20000364212280F83D2080F83C300168CA68A5
:102D300042F08002CA6018467047022070470120A6
:102D40007047012070470220704708B50168CA68C3
:102D500022F04002CA60202280F83D2001F0CAFA29
:102D6000002008BD08B5806B0023C385C38401F033
:102D7000BDFA08BD704790F83E30DBB2222B67D118
:102D80008368B3F5805F4DD0826AB3F5805F04D06D
:102D9000002B54D10369002B51D103685B68137079
:102DA000836A01338362C38D9BB2013B9BB2C385AF
:102DB000002B4FD100B583B00268D36823F0200305
:102DC000D3600268D36823F48073D36002685369C8
:102DD00023F001035361202380F83E30036B012B65
:102DE00033D100230363026802F10C0353E8003F70
:102DF00023F010030C3242E800310029F3D10368BC
:102E00001A6812F0100F06D0002201921A6801927F
:102E10005B680193019B818DFFF7ACFF002003B03D
:102E20005DF804FB0269002AAED1826A03685B6820
:102E3000C3F308031380836A02338362B3E7036832
:102E40005B6803F07F031370AAE701F029FAE5E756
:102E5000022070470020704730B583B004460268F6
:102E60001368D068516913F00F0505D113F0200FD6
:102E700002D010F0200F19D12DB111F0010119D19C
:102E800010F4907F16D1216B01297DD013F0800FB3
:102E900003D010F0800F40F0158113F0400F03D0E5
:102EA00010F0400F40F0128103B030BD2046FFF714
:102EB00062FFF9E713F0010F06D010F4807F03D012
:102EC000226C42F00102226413F0040F04D019B105
:102ED000226C42F00202226413F0020F04D019B1F6
:102EE000226C42F00402226413F0080F07D010F0A5
:102EF000200F00D119B1226C42F008022264226C2A
:102F0000002AD1D013F0200F02D010F0200F29D1C9
:102F100023685B6903F04003226C12F0080F00D1B4
:102F200063B32046FFF7D2FD23685B6913F0400FBF
:102F300020D0226802F1140353E8003F23F040033D
:102F4000143242E800310029F3D1A36B73B1614A16
:102F50001A65A06BFEF71CFC0028A5D0A06B036DC2
:102F60009847A1E72046FFF706FFD1E7204601F08A
:102F7000BDF999E7204601F0B9F995E7204601F03F
:102F8000B5F9002323648FE713F0100F3FF47EAFF1
:102F900010F0100F3FF47AAF0023019313680193F0
:102FA00053680193019B536913F0400F50D0A26BFB
:102FB00013685B689BB2002B3FF476AFA18D9942FA
:102FC0007FF672AFE385D369B3F5807F37D022688F
:102FD00002F10C0353E8003F23F480730C3242E803
:102FE00000310029F3D1226802F1140353E8003FB5
:102FF00023F00103143242E800310029F3D12268A2
:1030000002F1140353E8003F23F04003143242E876
:1030100000310029F3D1202384F83E3000232363BC
:10302000226802F10C0353E8003F23F010030C3236
:1030300042E800310029F3D1A06BFEF75FFBA18DC0
:10304000E38D9BB2C91A89B22046FFF793FE2BE7A6
:10305000A18DE38D9BB2C91A89B2E38D9BB2002B7F
:103060003FF422AF00293FF41FAF226802F10C03A6
:1030700053E8003F23F490730C3242E800300028FC
:10308000F3D1226802F1140353E8003F23F0010357
:10309000143242E800300028F3D1202384F83E3077
:1030A00000232363226802F10C0353E8003F23F05E
:1030B00010030C3242E800300028F3D12046FFF71D
:1030C00059FEF1E62046FFF72FFDEDE62046FFF71B
:1030D0003CFEE9E6652D0008034681628285C285D3
:1030E00000201864222283F83E2083F83C001968EF
:1030F000CA6842F48072CA6019684A6942F00102E3
:103100004A611A68D36843F02003D360704708B55A
:1031100090F83E30DBB2202B0DD171B17AB190F82E
:103120003C30012B0DD0012380F83C300023036399
:10313000FFF7D2FF00E0022008BD0120FCE70120DC
:10314000FAE70220F8E7000038B505460121FDF74F
:103150005FFD174C23680344236002212846FDF7D6
:1031600057FD636803446360A3680133A360A368E9
:103170003F2B09D92268C2F38F12A281002222605C
:10318000A260226901322261094B5A6901325A61F7
:103190005B693F2B0AD9064B5A68C2F38F121A8318
:1031A00000225A605A61DA690132DA6138BD00BF23
:1031B0009000002008B5074B00229A811A609A609F
:1031C0001A611A835A605A61DA610348FDF79AFC62
:1031D00008BD00BF90000020040A00202DE9F04146
:1031E0008AB00024059406940794089409940194E5
:1031F000374B1A6B42F004021A631A6B02F0040296
:103200000192019A02941A6B42F080021A631A6BBF
:1032100002F080020292029A03941A6B42F00102B9
:103220001A631A6B02F001020392039A04941A6B58
:1032300042F002021A631B6B03F002030493049B27
:10324000DFF89880224620214046FEF7A0FB214E61
:10325000224606213046FEF79AFB1F4F22464FF4C6
:1032600070713846FEF793FB2023059301250695E0
:103270000794089505A94046FEF79EFA0623059394
:1032800006950794089505A93046FEF795FA4FF480
:10329000704305934FF444130693079405A93046F1
:1032A000FEF78AFA4FF47073059306950794089514
:1032B00005A93846FEF780FA224608212820FEF7A5
:1032C000C1F92820FEF7F2F90AB0BDE8F08100BF8D
:1032D00000380240000402400008024000000240A2
:1032E00002680B4B9A4200D070470A4A13889BB27F
:1032F00001339BB2138013889BB2032BF4D95388FC
:103300009BB201339BB2538000231380ECE700BFD4
:1033100000000140B0000020B0F5804F17D00AD85F
:10332000B0F5805F0FD0B0F5005F03D10A4B3222B9
:10333000DA7170477047B0F5004F03D1064B322267
:103340005A7170477047044B32221A717047024B12
:1033500032229A71704700BFB000002008B50122E8
:1033600040210348FEF713FB024B64221A8108BD7B
:1033700000080240B000002008B5214B1B7B13F071
:10338000010F24D0012204211E48FEF700FB1C4B34
:103390001B7B13F0020F20D0012202211948FEF7F7
:1033A000F6FA174B1B7B13F0040F1CD0012280216F
:1033B0001548FEF7ECFA124B1B7B13F0080F18D0E0
:1033C00001224FF400711048FEF7E1FA08BD002217
:1033D00004210C48FEF7DBFAD9E700220221094854
:1033E000FEF7D5FADDE7002280210748FEF7CFFA85
:1033F000E1E700224FF400710348FEF7C8FAE5E761
:10340000B0000020000402400008024010B50E4B3E
:103410005960012802D002280BD010BD0B4C0022AD
:1034200009492046FFF77EF900212046FFF786FA7A
:10343000F3E7064C042204492046FFF773F9042100
:103440002046FFF77BFAE8E74C0A0020BC09002081
:1034500082B08DED000ACDED010A0C4B009AC2F34B
:1034600007611970C2F307415970C2F307219970BF
:10347000DA70019AC2F307611971C2F307415971F9
:10348000C2F307219971DA7102B07047680A00200F
:1034900008B501224FF480710348FEF778FA034B18
:1034A00064225A8108BD00BF00080240B00000201D
:1034B00010B58CB00024089409940A940B9420222F
:1034C0002146684601F002F82848294B03604FF472
:1034D00040334360846001230361047680F8204018
:1034E000C462244A8262C460C36180F8304044618F
:1034F000FDF760F968BB0E230893012309930023AD
:103500000A9308A91948FDF72BFA28BB0F2300934B
:10351000012301930222049202934FF48013079334
:103520004FF48033069300238DF815308DF8143056
:10353000039369460D48FDF78BFB80B90E2300937A
:103540000223019369460948FDF782FB50B90CB08C
:1035500010BDFFF79DFFCEE7FFF79AFFD6E7FFF715
:1035600097FFEBE7FFF794FFF1E700BF040A0020A5
:10357000002001400100000F00B58BB02348244B10
:1035800003600623436000238360C3604FF430224E
:1035900002614FF480124261037643768376012202
:1035A000C27603774377FDF75DFC18BB00230593D4
:1035B00006930122079200930193029303930493CD
:1035C00008920E23099369461048FDF7F1FCA0B953
:1035D0000E48FDF785FD98B902210C48FDF7DDFE88
:1035E00088B90C4B0022DA609A601A611A750BB028
:1035F0005DF804FBFFF74CFFD8E7FFF749FFE7E76B
:10360000FFF746FFE8E7FFF743FFEAE7080B002074
:1036100000640040300B002008B50A480A4B0360E4
:103620004FF4E123436000238360C36003610C22F5
:1036300042618361C361FFF735FB00B908BDFFF745
:1036400027FFFBE7C40A00200044004000B587B014
:103650000023029303930493059300930193154869
:10366000154A0260B32242608360F922C26003619E
:1036700043618361FEF7C6FF98B94FF4805302930C
:1036800002A90C48FFF7C8F870B920230093002363
:10369000019369460748FFF7D3F940B907B05DF8D1
:1036A00004FBFFF7F5FEE8E7FFF7F2FEEDE7FFF7B3
:1036B000EFFEF3E7700A00200000014008B50A4859
:1036C0000A4B03604FF4E123436000238360C3602F
:1036D00003610C2242618361C361FFF7E3FA00B921
:1036E00008BDFFF7D5FEFBE7780900200048004041
:1036F00000B58FB000230A930B930C930D9308939E
:1037000009930193029303930493059306930793FC
:103710002548264A02604360836040F6FF72C2601B
:1037200003618361FEF76EFF58BB4FF480530A9329
:103730000AA91D48FFF770F830BB1B48FEF78EFF43
:1037400028BB00230893099308A91748FFF778F9C5
:1037500000BB60230193002202920392059201A90B
:103760001148FEF7DFFFC0B904220DEB02010E483D
:10377000FEF7D8FFA0B90C4800F064FC0FB05DF86C
:1037800004FBFFF785FED0E7FFF782FED5E7FFF7E2
:103790007FFED6E7FFF77CFEDBE7FFF779FEE3E786
:1037A000FFF776FEE7E700BFBC09002000040040F9
:1037B00000B595B03422002107A800F087FE002351
:1037C000029303930493059306930093244A116C88
:1037D00041F080511164126C02F080520092009A04
:1037E0000193204B1A6842F440421A601B6803F4AC
:1037F00040430193019B012307934FF480330893C7
:1038000002230D934FF480020E9204220F92B422F1
:10381000109211931293139307A8FEF7A7FAB0B969
:10382000FEF7D2F8B0B90F230293022303930023CB
:1038300004934FF4A05305934FF48053069305214E
:1038400002A8FEF701F940B915B05DF804FBFFF7D7
:103850001FFEE5E7FFF71CFEE5E7FFF719FEF3E7BC
:10386000003802400070004000B583B0314B324A4E
:1038700000213248FDF7F1FC98B92F4B9B686BB9DA
:103880002D4B1B6840F22262934229D040F2236202
:10389000934241D040F22162934205D003B05DF8DB
:1038A00004FBFFF7F5FDF9E7234B1B69022BF5D16C
:1038B000204B1A788DF806205B788DF80730BDF81C
:1038C00006101F4B1B889942E8D01D4B19801D4BD9
:1038D0001B7B13F0080FE1D00120FFF797FDDDE718
:1038E000154B1B69022BD9D1124B1A788DF8062083
:1038F0005B788DF80730BDF80610114B5B88994254
:10390000CCD00F4B59800F4B1B7B13F0080FC5D049
:103910000220FFF77BFDC1E7074B1B69012BBDD1DF
:10392000044B1B7803F00F03064A1373FFF724FDC3
:10393000B4E700BFBC0A0020480B0020080B0020A1
:1039400008000020B000002008B50C4B13221A60BC
:1039500001221A610A4B1A7B0A4B1A700A48FDF7BA
:1039600063FC00B908BD094B064A04490648FDF747
:10397000E5FB0028F6D0FFF78BFDF3E7300B0020C6
:10398000B0000020680A0020080B0020B80A0020C0
:1039900010B582B0A44AD3899BB201339BB2D381C4
:1039A000D3899BB2B3F5FA7F5BD09F4BDB899BB287
:1039B000B3F57A7F5BD29C4B1B899BB253B19A4B78
:1039C0001B899BB2012B5BD0974A13899BB2013BA9
:1039D0009BB21381944B5B899BB253B1924B5B8931
:1039E0009BB2012B52D0904A53899BB2013B9BB2B0
:1039F00053818D4B1B794BB18B4B1B79DBB2012B68
:103A00004BD0894A1379013BDBB21371864B5B794A
:103A10004BB1854B5B79DBB2012B6FD0824A537976
:103A2000013BDBB25371804B9B7953B17E4B9B7949
:103A3000DBB2012B00F093807B4A9379013BDBB230
:103A40009371794BDB7953B1774BDB79DBB2012B87
:103A500000F0B680744AD379013BDBB2D37102B077
:103A600010BD012220217148FDF791FF9DE7002242
:103A700020216E48FDF78BFF6B4B0022DA819AE71D
:103A8000002240216A48FDF782FF9DE700224FF4A3
:103A900080716748FDF77BFFA5E74FF480516548CB
:103AA000FDF76EFF80B9604B1B7B13F0010F1BD03D
:103AB00023F001035C4A13730022042100F18040CB
:103AC00000F50130FDF763FF574B1A7B5A496846F2
:103AD00000F004FD6846FCF79BFB0146684600F0D9
:103AE0008FFCFFF731FF8CE743F001034E4A13735D
:103AF000012204214F48FDF74AFFE5E74FF400415A
:103B00004C48FDF73DFF80B9474B1B7B13F0020F7C
:103B10001BD023F00203444A13730022022100F158
:103B2000804000F50130FDF732FF3F4B1A7B4249E0
:103B3000684600F0D3FC6846FCF76AFB014668461D
:103B400000F05EFCFFF700FF68E743F00203364A2F
:103B50001373012202213748FDF719FFE5E74FF4FF
:103B600080413448FDF70CFF80B92F4B1B7B13F0CD
:103B7000040F1BD023F004032B4A1373002280216F
:103B800000F1804000F50230FDF701FF264B1A7B63
:103B90002949684600F0A2FC6846FCF739FB01465B
:103BA000684600F02DFCFFF7CFFE45E743F0040325
:103BB0001D4A1373012280211D48FDF7E8FEE5E749
:103BC0004FF400511B48FDF7DBFE00287FF442AFA5
:103BD000154B1B7B13F0080F30D023F00803124A5B
:103BE000137300224FF4007100F1804000F50230A1
:103BF000FDF7CDFE4FF6FF710120FFF707FC4FF6F2
:103C0000FF710220FFF702FC074B1A7B0A49684646
:103C100000F064FC6846FCF7FBFA0146684600F0D9
:103C2000EFFBFFF791FE15E7B00000200000024017
:103C300000080240000402407C4D000843F00803E5
:103C4000084A137301224FF400710748FDF79FFEE5
:103C5000064C21880120FFF7D9FB61880220FFF77D
:103C6000D5FBD1E7B000002000080240080000208A
:103C700010B504460B4B19611A600B48FDF7D4FAD6
:103C800000B910BD094B224606490748FDF756FA10
:103C900010B1FFF7FDFBF4E704210548FDF77DFEB9
:103CA000EFE700BF300B0020080B0020B80A00200F
:103CB0000004024030B587B0FCF7A2FCFFF778FDA6
:103CC000FFF78CFAFFF7F4FBFFF756FCFFF7A4FCB5
:103CD000FFF7BCFCFFF7F2FCFFF70AFD694C00217F
:103CE0002046FEF72BFE04212046FEF727FE664BFA
:103CF00060221A6000249C601C615C616348FEF7CE
:103D000017FBFFF757FA00F021FB1321604800F082
:103D100077FB604B1A7B604902A800F0DFFB02A82A
:103D2000FCF776FA014602A800F06AFB5B4B93E8C9
:103D3000030002908DF80C1002A8FCF769FA014606
:103D400002A800F05DFB02215548FDF726FB202369
:103D50008DF8003001258DF801504FF4E162022109
:103D60006846FFF785FF40F2DC50FCF775FC302316
:103D70008DF800308DF801504FF4E1620221684661
:103D8000FFF776FF40F6B830FCF766FC90238DF81D
:103D900000308DF801404FF4B26202216846FFF70F
:103DA00067FF6420FCF758FC8DF800508DF8014047
:103DB0008DF802408DF8034002238DF804308DF811
:103DC00005408DF806408DF8074040F295520821D5
:103DD0006846FFF74DFF6420FCF73EFC10238DF88A
:103DE00000308DF8014012238DF802308DF8034029
:103DF0004FF4B26204216846FFF73AFF6420FCF7F3
:103E00002BFC50238DF800308DF801408DF80250C6
:103E10008DF803404FF4B26204216846FFF728FF93
:103E20006420FCF719FC8DF800408DF801408DF8F6
:103E300002408DF803408DF804408DF805408DF860
:103E400006408DF80740DFED170AB0EE000AFFF7D5
:103E5000FFFA10E00F4B00225A8040F292520821E4
:103E60006846FFF705FF4FF480710F48FDF795FD99
:103E70006420FCF7F1FB074B5B889BB2002BFAD068
:103E8000E8E700BFBC0900204C0A0020700A0020AF
:103E9000504D0008B0000020844D0008904D0008EF
:103EA000080B002000803B450008024082B0002142
:103EB00000910B4B5A6C42F480425A645A6C02F4E3
:103EC00080420092009A01911A6C42F080521A646A
:103ED0001B6C03F080530193019B02B0704700BF3D
:103EE0000038024030B589B0002303930493059352
:103EF00006930793026803F1804303F590339A42D7
:103F000001D009B030BD0024019403F58C335A6C04
:103F100042F480725A645A6C02F480720192019ADF
:103F200002941A6B42F004021A631B6B03F0040341
:103F30000293029B3023039303250495059403A960
:103F40000548FDF739FC224629461220FDF77AFB89
:103F50001220FDF7ABFBD4E70008024030B589B072
:103F60000023039304930593069307930268194B68
:103F70009A4201D009B030BD0024019403F5EA3320
:103F80001A6C42F000721A641A6C02F0007201920C
:103F9000019A02941A6B42F002021A631B6B03F03F
:103FA00002030293029B4FF440730393022504958E
:103FB0000594032306930923079303A90648FDF7F5
:103FC000FBFB224629461420FDF73CFB1420FDF79D
:103FD0006DFBCFE7006400400004024000B583B0F1
:103FE0000368154A934205D0144A934216D003B091
:103FF0005DF804FB00220092114B596C41F0010165
:1040000059645B6C03F001030093009B01211920AC
:10401000FDF718FB1920FDF749FBE8E700230193A2
:10402000074B1A6C42F002021A641B6C03F0020385
:104030000193019BDBE700BF00000140000400404A
:104040000038024000B587B0002301930293039328
:104050000493059302680F4B9A4202D007B05DF8B3
:1040600004FB002300930C4A116B41F00201116321
:10407000126B02F002020092009A30220192022298
:10408000029203930493059201A90448FDF794FB5F
:10409000E4E700BF00040040003802400004024092
:1040A00010B58AB0002305930693079308930993EC
:1040B0000368304A934204D02F4A93422DD00AB06D
:1040C00010BD002401942D4B1A6C42F400321A6486
:1040D0001A6C02F400320192019A02941A6B42F0B7
:1040E00001021A631B6B03F001030293029B0C2372
:1040F0000593022306930794032308930723099348
:1041000005A91F48FDF758FB224604212620FDF78C
:1041100099FA2620FDF7CAFAD1E700240394174B39
:104120001A6C42F480221A641A6C02F48022039200
:10413000039A04941A6B42F004021A631B6B03F097
:1041400004030493049B4FF44063059302230693F6
:104150000794032308930723099305A90948FDF74A
:104160002BFB224605212720FDF76CFA2720FDF7BF
:104170009DFAA4E700440040004800400038024097
:1041800000000240000802407047FEE7FEE7FEE73D
:10419000FEE770477047704708B5FCF74BFAFDF72C
:1041A000A9FA08BD08B50248FCF732FB08BD00BFFC
:1041B000040A002008B50248FDF70DF908BD00BF4C
:1041C000080B002008B50248FEF7FBF808BD00BF49
:1041D000700A002008B50248FEF73EFE08BD00BF89
:1041E000C40A002008B50248FEF736FE08BD00BF2D
:1041F0007809002008B54FF48050FDF7D7FB4FF445
:104200000050FDF7D3FB4FF48040FDF7CFFB4FF498
:104210000040FDF7CBFB08BD08B503460B4A12680A
:1042200042B10A4A106803446A46934206D8074AD4
:10423000136008BD054A06491160F2E700F01CF959
:104240000C2303604FF0FF30F3E700BFC4000020F1
:10425000780B00200F49D1F8883043F47003C1F87F
:1042600088300D4B1A6842F001021A6000209860F5
:104270001A6822F0847222F480321A60074A5A6067
:104280001A6822F480221A60D8604FF000638B60B5
:10429000704700BF00ED00E00038024010300024FD
:1042A00008B502680F4B9A4200D008BD0E4B1A6841
:1042B00001321A601B687F2B11D80B4B5A680132F0
:1042C0005A605B687F2B02D9074B00225A60064B6D
:1042D0005968083301221944FEF719FFE5E7FFF793
:1042E0003DF8E2E700480040CC00002008B5FFF7A9
:1042F00035F808BD08B50268124B9A4200D008BDD7
:10430000114BD3F88820013AC3F88820D3F88C20C9
:104310000132C3F88C20D3F88C30B3F5006F03D38F
:10432000094B0022C3F88C20074BD3F88830002BB0
:10433000E5D0054BD3F88C10903301221944FEF7D9
:10434000E0FCDCE700480040CC00002038B50B4C16
:1043500000256560C4F890582560C4F8945801227F
:1043600004F108010648FEF7D2FEC4F89858C4F8D4
:104370008C50C4F88850C4F89C5838BDCC0000203C
:104380007809002010B51C4BD3F88830B3F5006FC6
:104390002ED2EFF3108472B6174BD3F898281A4434
:1043A00082F89000D3F898280132C3F89828D3F8FF
:1043B0009838B3F5006F03D30F4B0022C3F8982849
:1043C0000D4BD3F888200132C3F88820D3F8883009
:1043D000012B03D004B962B6002010BD064BD3F800
:1043E0008C109033012219440448FEF78AFCF1E74F
:1043F000FEF7B4FF0120F0E7CC0000207809002090
:1044000070B506460D4600231C4600E00134A54267
:1044100006D9305D20B1FFF7B5FF03460028F5D07F
:10442000184670BDDFF834D0002103E00C4B5B5818
:10443000435004310B480C4B42189A42F6D30B4AB6
:1044400002E0002342F8043B094B9A42F9D3FFF7FC
:1044500001FF00F017F8FFF72DFC70470000022065
:10446000D84D0008000000207400002074000020D7
:10447000740B0020FEE70000014B1868704700BF76
:104480001000002070B50D4D0D4C641BA4100026CB
:10449000A64209D10B4D0C4C00F04EFC641BA4103D
:1044A0000026A64205D170BD55F8043B9847013659
:1044B000EEE755F8043B98470136F2E7D04D000887
:1044C000D04D0008D04D0008D44D000802440346EA
:1044D000934200D1704703F8011BF9E70EB400B511
:1044E0009CB01DAB029006906FF000410948079107
:1044F0000491094953F8042B05910068019302A91E
:1045000000F068F8029B00221A701CB05DF804EB02
:1045100003B07047100000200802FFFF2DE9F047AC
:104520008E689E4282460C4690461F4638D88A893D
:1045300012F4906F32D025680969A5EB010965690D
:1045400005EB450505EBD57501334B446D109D42D8
:1045500038BF1D46530531D5294600F047FB0646B6
:1045600050B90C23CAF80030A38943F04003A3815B
:104570004FF0FF30BDE8F08721694A4600F0BEFAEF
:10458000A38923F4906343F08003A38126616561CE
:104590004E44A5EB09052660A5603E46BE4200D903
:1045A0003E4632462068414600F0B6FAA3682268CB
:1045B0009B1B3244A36022600020DBE72A4600F008
:1045C0006FFB06460028E1D12169504600F0BEFA93
:1045D000C7E700002DE9F04F98468B891B069DB078
:1045E00007460D4614460ED50B6963B9402100F00D
:1045F000FDFA2860286120B90C233B604FF0FF30A2
:10460000D1E040236B610023099320238DF82930EA
:10461000CDF80C803023DFF8A8818DF82A304FF0D8
:10462000010923469A4613F8012B0AB1252AF9D12C
:10463000BAEB040B0BD05B46224629463846FFF7FF
:104640006DFF013000F0AA80099A5A4409929AF845
:104650000030002B00F0A28000234FF0FF32CDE9A4
:1046600005230AF1010A049307938DF853301A9336
:104670005446052214F8011B5148FBF7D1FD049A5A
:10468000D8B9D00644BF20238DF85330110744BF5A
:104690002B238DF853309AF800302A2B15D0079A27
:1046A000544600204FF00A0C214611F8013B303BE4
:1046B000092B4ED9B0B1079214E0A0EB080309FA18
:1046C00003F313430493A246D2E7039B191D1B680F
:1046D0000391002BBBBF5B4242F00202079307939A
:1046E000B8BF049223782E2B0CD163782A2B35D1B6
:1046F000039B1A1D1B680392002BB8BF4FF0FF33BA
:1047000002340593DFF8C8A0217803225046FBF756
:1047100087FD40B14023A0EB0A0003FA00F0049BA0
:1047200003430134049314F8011B26488DF8281024
:104730000622FBF775FD002838D0234B1BBB039BDB
:10474000073323F0070308330393099B334409938A
:1047500067E70CFB02320C460120A5E70023013479
:10476000059319464FF00A0C204610F8012B303AF9
:10477000092A03D9002BC5D00591C3E70CFB012101
:1047800004460123F0E703AB00932A460F4B04A92C
:104790003846AFF30080421C0646D6D1AB895B0693
:1047A0003FF52CAF09981DB0BDE8F08F03AB009327
:1047B0002A46064B04A9384600F07AF8EBE700BF1A
:1047C000954D00089F4D0008000000001D450008A1
:1047D0009B4D00082DE9F047164699468A680B69FB
:1047E000DDF820809342B8BF1346336091F8432030
:1047F00007460C460AB1013333602368990642BF6D
:10480000336802333360256815F0060506D104F1DC
:10481000190AE36832689B1AAB4226DC94F84320FD
:10482000131E226818BF012392062BD404F1430201
:1048300049463846C04701301ED02368E5683268D3
:1048400003F00603042B08BFAD1AA36822690CBF4E
:1048500025EAE57500259342C4BF9B1AED18002692
:104860001A34B5421AD1002008E0012352464946C5
:104870003846C047013003D14FF0FF30BDE8F08724
:104880000135C6E7E1185A1C302081F84300224464
:1048900094F8451082F843100233C7E701232246FB
:1048A00049463846C0470130E6D00136D9E7000016
:1048B0002DE9FF470C469146277E0C99782F8046BC
:1048C0009A4604F1430207D8622F0AD8002F00F05D
:1048D000D880582F00F0A38004F1420684F842707B
:1048E0003AE0A7F16303152BF6D801A050F823F0A6
:1048F000494900085D490008D9480008D94800081E
:10490000D9480008D94800085D490008D94800087E
:10491000D9480008D9480008D9480008694A000861
:104920008D4900084B4A0008D9480008D9480008BA
:104930008B4A0008D94800088D490008D94800086A
:10494000D9480008534A00080B681A1D1B680A6002
:1049500004F1420684F842300123A3E02568086888
:104960002E0600F104030AD505680B60002D03DA5A
:104970002D236D4284F843305E480A2319E015F078
:10498000400F05680B6018BF2DB2EFE70B68256874
:10499000181D0860280601D51D6802E06906FBD5D0
:1049A0001D8854486F2F0CBF08230A23002184F868
:1049B00043106668A660002EA2BF216821F00401A2
:1049C00021600DB9002E4DD01646B5FBF3F103FB67
:1049D0001157C75D06F8017D2F46BB420D46F4D93D
:1049E000082B0BD12368DF0708D52369616899423A
:1049F000DEBF302306F8013C06F1FF36921B226130
:104A0000CDF800A04B4603AA21464046FFF7E2FE40
:104A100001304CD14FF0FF3004B0BDE8F08735488D
:104A200084F8457023680E681F0656F8045B0E6014
:104A300014D5D90744BF43F0200323601DB9236870
:104A400023F0200323601023B0E7236843F0200302
:104A500023607823284884F84530E3E75E0648BFA2
:104A6000ADB2E6E71646BBE70B68266860691D1D18
:104A70000D6035061B6801D5186002E07106FBD594
:104A80001880002323611646BAE70B681A1D0A60D6
:104A90001E68626800213046FBF7C2FB08B1801B2C
:104AA000606063682361002384F84330A8E72369CA
:104AB000324649464046D0470130ABD023689B0779
:104AC00013D4E068039B9842B8BF1846A4E70123BB
:104AD000324649464046D04701309BD00135E36815
:104AE00003995B1AAB42F2DCEBE7002504F11906EF
:104AF000F5E700BFA64D0008B74D00080A449142F3
:104B000000F1FF3300D1704710B511F8014B03F8E5
:104B1000014F9142F9D110BD884210B501EB02045A
:104B200002D98442234607D8431EA14208D011F877
:104B3000012B03F8012FF8E7024401468A4200D115
:104B400010BD13F8014D02F8014DF7E737B5002904
:104B500048D051F8043C0190002BA1F10404B8BFE7
:104B6000E41800F0D3F8204A01981368154633B9C9
:104B70006360146003B0BDE8304000F0CDB8A342DC
:104B80000BD921686218934204BF1A685B6863609E
:104B900004BF521822602C60ECE71A465B680BB128
:104BA000A342FAD911685518A5420BD124682144B3
:104BB0005418A3421160DDD11C685B685360214426
:104BC0001160D7E702D90C230360D3E72568611988
:104BD0008B4204BF19685B68636004BF4919216098
:104BE0005460C7E703B030BD6C090020F8B5CD1C98
:104BF00025F0030508350C2D38BF0C25002D064681
:104C000001DBA94203D90C2333600020F8BD00F07A
:104C10007DF821490A6814469CB9204F3B6823B9A6
:104C20002146304600F062F838602946304600F0F0
:104C30005DF8431C23D10C233360304600F06CF840
:104C4000E3E723685B1B17D40B2B03D923601C44B9
:104C5000256004E06368A2420CBF0B6053603046DD
:104C600000F05AF804F10B00231D20F00700C21ACF
:104C7000CCD01B1AA350C9E722466468CCE7C41CF9
:104C800024F00304A042E3D0211A304600F02EF8AD
:104C90000130DDD1CFE700BF6C0900207009002092
:104CA000F8B5074614460E4621B9BDE8F84011464E
:104CB000FFF79CBF22B9FFF749FF25462846F8BDFC
:104CC00000F030F8A0420FD221463846FFF78EFFA1
:104CD00005460028F2D031462246FFF70FFF314645
:104CE0003846FFF733FFE9E73546E7E738B5064DC5
:104CF0000023044608462B60FFF78EFA431C02D1BE
:104D00002B6803B1236038BD640B0020014800F01C
:104D100011B800BF6C0B0020014800F00CB800BFB8
:104D20006C0B002051F8043C181F002BBCBF0B5823
:104D3000C018704770477047F8B500BFF8BC08BC92
:104D40009E467047F8B500BFF8BC08BC9E46704749
:104D50000D0A0A2D2D2053656E7341637434202D86
:104D60002D0A0D00000000000000000001020304F5
:104D7000060708090000000001020304244D253243
:104D8000580D0A00244D253032780D0A000000002D
:104D900024490D0A00232D302B2000686C4C00653F
:104DA0006667454647003031323334353637383957
:104DB000414243444546003031323334353637388A
:084DC00039616263646566005D
:084DC80028B5FF7F0100000087
:044DD000F5010008E1
:044DD400D101000801
:104DD8000100000010000000FFFFFFFF0024F400A6
:104DE8001400002000000000000000000000000087
:104DF80000000000000000000000000000000000AB
:104E0800000000000000000000000000000000009A
:104E1800000000000000000000000000000000008A
:104E2800000000000000000000000000000000007A
:104E3800000000000000000000000000000000006A
:044E48000000000066
:040000050800442586
:00000001FF
